:020000041000EA
:1000000000B5324B212058609868022188439860DF
:10001000D860186158612E4B002199600221596106
:100020000121F02299502B49196001219960352056
:1000300000F044F80222904214D00621196600F024
:1000400034F8196E01211966002018661A6600F04E
:100050002CF8196E196E196E052000F02FF8012189
:100060000842F9D1002199601B49196000215960AB
:100070001A491B48016001219960EB211966A021F2
:10008000196600F012F800219960164914480160C1
:100090000121996001BC002800D000471248134993
:1000A000086003C880F30888084703B5996A0420EC
:1000B0000142FBD001200142F8D103BD02B5186610
:1000C0001866FFF7F2FF186E186E02BD00000240BE
:1000D000000000180000070000035F00212200005C
:1000E000F4000018222000A00001001008ED00E03C
:1000F00000000000000000000000000074B24E7A12
:1001000000200420F7010010C3010010C5010010F9
:10011000C1010010C1010010C1010010C101001097
:10012000C1010010C1010010C1010010C701001081
:10013000C1010010C1010010C9010010CB01001065
:10014000CD010010CD010010CD010010CD01001037
:10015000CD010010CD010010CD010010CD01001027
:10016000CD010010CD010010CD010010CD01001017
:10017000CD010010CD010010CD010010CD01001007
:10018000CD010010CD010010CD010010CD010010F7
:10019000CD010010CD010010CD010010CD010010E7
:1001A000CD010010CD010010CD010010CD010010D7
:1001B000CD010010CD010010CD010010CD010010C7
:1001C00000BE00BE00BE00BE00BE00BEEFF3058054
:1001D000103800BEF2EB8871D8020010F402001053
:1001E0003402001090A31AE700202249086006C8D4
:1001F00081F30888104720480068002835D10DA4F5
:100200000ECC002902D000F012F8F9E71B491C4A75
:10021000002000E001C19142FCD11A4988471A49E7
:1002200088471A49884700BEFDE701C901C29A42C2
:10023000FBD37047F4020010C0000020702500209E
:10024000A427001070250020D0290020042C0010C5
:100250000000042000000420042C001000100420E2
:1002600000100420000000007047094800F014F856
:100270000047000008ED00E0000000D0D029002079
:10028000AC2E0020491B002031050020191C002045
:10029000575600000000000001B40248844601BC2B
:1002A000604700BFA91C002006005250ABB360534A
:1002B000A828002006005250861C0302B328002004
:1002C000060052505422A29DBE2800200500525024
:0802D000DE65F468042C001047
:1002D800CC020010C0020010B4020010CA2800208E
:0C02E800A8020010D6280020E228002008
:1002F400F8B5C04610B5064C2378002B07D1054B42
:10030400002B02D0044800E000BF0123237010BD7D
:10031400D02A00200000000070250020044B10B5F6
:10032400002B03D00349044800E000BF10BDC046C1
:1003340000000000D42A00207025002000487047E7
:100344005049434F43688020C000834204D80020B2
:1003540008600248136070470148FCE74F4B4F4B5D
:100364004552522109C80343180010B50324204004
:10037400234203D108601060014810BD0148FCE726
:100384004F4B4F4B4552522110B5FFF7EBFF10BDB9
:1003940030B503680B4CA34211D98124406864052D
:1003A4001D18A5420BD20343DBB2002B07D18024D6
:1003B400E400A04203D808600348136030BD03483A
:1003C400FCE7C046FF3F00104F4B4F4B45525221B4
:1003D400074B08481360FE235B03536080235B01D3
:1003E400936080235B00D3608023DB00136170473C
:1003F400004000104F4B4F4B002302480B6013602A
:100404007047C0464F4B4F4B80210A4B0268C905C9
:1004140010B51960084B002A09D0084A1A62084A24
:100424005A6200221100100001F070FCFEE71A620B
:10043400F6E7C04600B00540008005400DF005B168
:10044400F20FFA4E03000C4A006810B5904210D91E
:100454005968812342185B059A420AD203000B4370
:100464001B0506D1F0231B06C01802F031FA03481D
:1004740010BD0348FCE7C046FF2F00104F4B4F4B05
:1004840045525221020010B506CA180002F02CF899
:10049400004810BD4F4B4F4B102210B5054B41186F
:1004A400884200D110BD9C691442FCD11C680470C0
:1004B4000130F5E700400340024BC0021840024BF4
:1004C4001843704731F81FFF19801F00F0B506006C
:1004D40085B00120019102F0E7F80400FFF7ECFF7A
:1004E4002C239843214BA02203430093012187230B
:1004F400D205DB004942D1501D4BA001C71880230F
:1005040080219B013B43090419601E21194B80186B
:100514001B689C466300194021230B4361464B40F2
:10052400DB051549DB0D0B60144BD1588C4680213B
:100534006546C9002943D150019906608D0803A975
:10054400416000998560C1608021490438680600D3
:100554000E400842FAD18721C90055582000D650D0
:1005640002F09AF8E84305B0F0BDC04618008000D8
:1005740010000050340400503414005034040000BF
:1005840070B50568040041682800FFF79FFFA26862
:10059400030000209A420ED180232A689B059A42C8
:1005A40009D36A6823689A4205D361685B189A4242
:1005B40001D80130104070BD10B50400C2B0F4225F
:1005C400002105A801F08AFFA16823680191049124
:1005D4000321626802930392DBB20A40134319D1E8
:1005E40002A8FFF7CDFF002814D08021C0204901C4
:1005F400800102F06DF98022C020520002A980011E
:1006040002F0A2F980220649520002A802F074F80E
:10061400002802D0034842B010BD0348FBE7C0469F
:1006240000300010455252214F4B4F4BF0231B0614
:1006340070B560C81400E818320002F085F9310082
:100644002800FFF743FF2060004870BD4F4B4F4B1D
:1006540010B503C81400FFF739FF2060004810BD2F
:100664004F4B4F4BF0B5036885B046680120150029
:10067400009302F019F80400FFF71EFF2C2398439F
:100684001E4BA0210343019387230022C905DB00ED
:10069400CA501B4BA201D018802380279B0103431F
:1006A4003F041F601E27174B52181B68B6089C4650
:1006B40063001F40E223FF333B4367467B40DB0577
:1006C400114FDB0D3B60009B136003AB5360019B38
:1006D4009660D36080230E005B0402681100194009
:1006E4001A42FAD1094B2000F15001F0D5FF8723BB
:1006F400DB00F35806482B6005B0F0BD18008000FD
:10070400100000503404005034140050340400002D
:100714004F4B4F4B01210C4A13688B431360012349
:100724000A4A5B42D367C022094952008B50094BE5
:10073400094A0A491A6003685A688B601B6883F384
:1007440008881047FEE7C04610E000E004E100E03E
:1007540000E100E000E00040BFEDFBFF00ED00E041
:10076400F0B58DB000AF192000F05AF9D0248023E1
:1007740024069B0463620F20636100F051F9002298
:1007840001210F2000F036F980231B020A20A36206
:1007940000F036FE7B4A7C49106A0023884204D16B
:1007A400536A7A4A9B185A425341626812041FD50D
:1007B400002B1DD1764C2000FFF7E2FE002817D055
:1007C4000120744923680A6882430A60012272493D
:1007D4005242CA67C021714849004250704A714967
:1007E400116071495A688B601B6883F3088810474D
:1007F400E1216E4C0903200001F0BCF80221002025
:1008040000F0E2F80120022100F0DEF8C022236BA0
:1008140012021340664A00201360664B9D446B46E7
:10082400BB600138012802D801F05AFF292F624B1E
:1008340080227B61D02300251B0692045A612E007E
:1008440000E035000823F918CB189B191800012182
:100854007B60FFF721FED02380221B069204DA611D
:1008640008220C23BA18D3187A689B5D12780026E4
:100874009A42E6D10135042DE1D10220D1E70823C3
:10088400FA180421D018FFF707FE00221420396952
:100894004A4D030053435B191E68B1423CD1BA6808
:1008A400FB60101D7A605A689B6891009B00C31816
:1008B40042187B62B861FA613862FFF7EDFDFB68AC
:1008C400DB68002B2ED1BB62FB62B96AF869FFF7C3
:1008D400E3FDFD682E69002E49D07B6A3A6AF96906
:1008E400B869B047364B7861984228D0BB68082174
:1008F4007B600C2379180422C9187868AE68FD6AF5
:1009040001F0F2FD2022BB680136B6005D19AE1974
:100914009E422FD1012084E701320A2AB9D1284B03
:100924007B610CE00820242239188A182021381809
:100934004118B8699847224B78619842C5D1BB6881
:1009440008217B600C2379180422C918786801F007
:10095400CBFD2022BB681D1DA16908001040114277
:10096400FAD11978013321609D42F5D159E7154B2D
:100974007B61BBE7A1691142FCD119780133216085
:10098400C6E7C046008005400DF005B10EF005B184
:100994000030001010E000E004E100E000E100E0BD
:1009A40000E00040BFEDFBFF00ED00E0004003402D
:1009B40030500340E8FBFFFF53594E438C2700207F
:1009C400455252214F4B4F4B084B8200D2184023C3
:1009D40010B51468C0006340C0242340802464011F
:1009E40022431360024BC018416010BD04C0014093
:1009F40000400140094B8000C0184B1E9941531E12
:100A04009A41C900036892001143594080230C2283
:100A14005B011140184301607047C04604C00140A7
:100A24000123D022834010B51206936205219361FD
:100A3400FFF7CAFF10BD0000024B18688007C00F03
:100A44007047C04600C00640EFF3108072B6034AF8
:100A54001368002BFCD0BFF35F8F70472C0100D0CC
:100A6400BFF35F8F0022024B1A6080F31088704737
:100A74002C0100D00722CB08C35C01201140884020
:100A84001840431E9841C0B27047F8B505000C00E9
:100A94001700FFF7D9FF210006002800FFF7EAFF3F
:100AA400002803D02100380001F0D2F907210123E6
:100AB400E2080C40A340A95C30000B43AB54FFF7A1
:100AC400CFFFF8BDF7B5050014001F000191FFF733
:100AD400BBFF0600BC4202D9012464420DE02100A0
:100AE4002800FFF7C7FF002812D107220123224064
:100AF4009340E1086A5C13436B543000FFF7B0FF86
:100B0400002C07DA019B002B04D0089801F0A0F90F
:100B14000134DFE72000FEBD70B505000C00FFF7CF
:100B240093FF07210122E6080C40A240AB5D9343EA
:100B3400AB55FFF795FF70BD0021044B044ABFF38A
:100B44005F8F02C39342FAD17047C046000100D0C0
:100B5400800100D0044A1078431CDBB2172B01D863
:100B6400137070471023FBE710290020074B103047
:100B74009B688000C150BFF35F8FBFF35F8F00217C
:100B8400034B196082F310887047C04600ED00E003
:100B9400240100D001228240034B1B681340581EDD
:100BA4008341D8B27047C04600E100E0002904D078
:100BB400034B1860034B18607047034BFBE7C046B8
:100BC40080E200E000E100E080E100E001238340F6
:100BD40010B51800FFF7EAFF10BD0000024B1030FB
:100BE4009B688000C058704700ED00E070B50400B9
:100BF4000D00EFF3108672B60A4A1368002BFCD07E
:100C0400BFF35F8F2000FFF7E9FF074B984203D043
:100C1400A84201D001F034F9320029002000FFF786
:100C2400A5FF70BD240100D0CD010010F0B585B042
:100C340005000191EFF3108372B6494A02931368D9
:100C4400002BFCD0BFF35F8F2F00464B10379B68FF
:100C5400BA00D458444B9C4268D0019A944200D1C3
:100C64007CE0424BE31A2F2B60D82800FFF792FF59
:100C7400002103902800FFF7A9FFBFF35F8FEFF374
:100C84000586002E03D0B74201D001F0F9F8012304
:100C940022009A4313000022344F986806218446A8
:100CA40001985956844514D1002919DA002E48D1E7
:100CB400002A44D0FF2191712D4991802D492B4860
:100CC4000A789A712C4A1B1A5B415A43120D0A7016
:100CD40028E0002926DB0C2251431A007B18DCE7AC
:100CE4000C204843214A1618B7689F60F779DF71D2
:100CF4000627F7579F71B7797F2F1ED8B6887605D8
:100D040036158619D01AE02280190005400D12020A
:100D140010430C224A439880144B9B18154A1078B0
:100D24001170987128000399FFF750FF21002800E3
:100D3400029AFFF71BFF05B0F0BD1048E9E70A4C23
:100D4400BCE70F4A0F49D21A083A5002400D01433A
:100D540099800D4952080A43DA80E3E71C00E5E76D
:100D6400240100D000ED00E0CD0100101429002082
:100D740001BDFFFFA02C0020AAAA000001BD0000B5
:100D84004E29002000F0FFFF00F8FFFF0121EFF3E0
:100D94000582F0B50143EFF3108572B61A4B1C6857
:100DA400002CFCD0BFF35F8F184C0700184B3F1B7F
:100DB4007F417B431B0D174F9200BE685BB2B65850
:100DC4008E420ED1B968144C8C50144A11781370A9
:100DD4008171BFF35F8F00230B4A136085F3108882
:100DE400F0BD220000210627D7579F4207D10C22CD
:100DF4004A43FF21A218917109499180E5E7013125
:100E04000C320429EFD1E0E7240100D0142900209A
:100E1400AAAA000000ED00E0CD010010A02C0020E3
:100E240001BDFFFF054B064A1360064A1360536079
:100E34009360D360136153619361704780808080B5
:100E440000E400E004E400E0024BC91889000160FA
:100E54007047C0464000003410B50400FFF77AFE26
:100E640001002000FFF7F0FFFF232371BFF35F8F22
:100E740010BD10B50400FFF76DFE01002000FFF760
:100E8400E3FFFF23A380BFF35F8F10BD30B5084D90
:100E940001226C6A0023A14206D8AD6A1300854280
:100EA40002D20B1B591E8B411340180030BDC046A3
:100EB40000400540032330B50468180053434843F9
:100EC400033BE31803389970215C2518002901D1EC
:100ED4002A7030BD5970FBE783680A4810B50918B9
:100EE40012181201090159189B185C684A680120FC
:100EF400944205D803D11A680B689A4200D800209E
:100F0400C0B210BDFFFFFF0F70B50C000500080054
:100F140000F0CEFB2000094900F022FBFFF71AFE87
:100F2400074B2C75C018D0231B061B6880006B75FB
:100F3400044BA4006860E55070BDC046110E00204B
:100F440040000034342C00200A4B1868EFF3108260
:100F540072B601680029FCD0BFF35F8F1B68BFF332
:100F64005F8F0021196082F3108840BF00200021A8
:100F74007047C046482C0020F0B585B002930CABF6
:100F84001C780DAB1B780700056801920393002CB5
:100F940010D1AC7B002C47D0032363432A68033B66
:100FA400D3185A78AA73002A00D1EA7300229A70DF
:100FB4005A701A70214BBA68E3181B01D318019AAE
:100FC4001A60029A5A600A9A9A600B9ADA600323AA
:100FD40063432A68033BD31800229A705A701A702C
:100FE4006E7B964228D022003100A8686B6898472F
:100FF40000281CD0220031002800FFF75BFF6E732D
:10100400A64211D1387D019A029B00F0F3FA051E25
:1010140006D0039B002B03D12100386800F00EFC9E
:101024000E9B002B00D01D70200005B0F0BD3200D7
:1010340021002800FFF73EFF2600E0E7FFFFFF0F37
:101044000023F0B58FB00C935F4B8200D4580D9001
:1010540000F058FA02000B006068EFF3108172B6DA
:10106400089101680029FCD0BFF35F8F21688C468A
:10107400497B0791002900D171E05449079845182C
:10108400A1682D014D192868696806000F00B61A79
:101094009F41002F57DC01D1002E54D1002160461E
:1010A40000F0C2FB2A686B680A920B93E368079A04
:1010B400AF689B18013B1B78ED680C931B0203433C
:1010C400002023616368BFF35F8F00221A60089BCE
:1010D40083F31088974271D00C9B29001802079B58
:1010E4001843B847089009916268EFF3108372B609
:1010F4001E001368002BFCD0BFF35F8F099B002BED
:1011040035DA2369002B40D00A9A0B9B0898099979
:10111400121A8B41002B02DA01222D4B524200217C
:1011240004910131039107992000029101950097E0
:10113400FFF722FF002263682261BFF35F8F1A600A
:1011440086F3108884E702000B000D9800F052FA31
:101154000025002200232F000A920B93B2E70022FD
:101164000023079D0A920B932F002800AAE7089BEF
:10117400099A134309D02369002B06D000F0C2F961
:10118400089A099B12184B41C4E72368D97B0029AC
:1011940006D003224A4319688A180799033A517002
:1011A4009A7B002A01D1079A9A73079ADA7313007B
:1011B400E168013BCA5C0132CA54BBE7002800D095
:1011C40046E70FB0F0BDC046342C0020FFFFFF0FF0
:1011D400FFFFFF7F10B50B4C6368002B0CD110216F
:1011E4002300094A206800F0C6FA032000F07EF9C3
:1011F40003212000FFF788FE0A210448FFF724FE9C
:1012040010BDC0465C290020A90C0020482C0020F9
:10121400F0B516001F22002504008DB01F0014AB8A
:101224001B78099304ABD21815706268EFF310832E
:1012340072B606931368002BFCD0BFF35F8F1F2395
:1012440004AA9B180493139B32000193129B200061
:10125400009303953B000295FFF78EFE002398420E
:1012640003D0E3681B18013B1B786268BFF35F8FF0
:101274001560069A82F3108800281CD004AAD27F35
:10128400002A1BD11B0218430DB0F0BD0690079134
:10129400002909DA069A079BB61A9F41002FC4DA7F
:1012A40001260C4F7642C0E700F02CF9069E079FFA
:1012B40036184F41F2E701204042E5E7099B002B35
:1012C40006D0129B00201399984703000B43DDD1ED
:1012D4000020D9E7FFFFFF7FF8B504000B00081ECC
:1012E40029D06168EFF3108572B60A68002AFCD031
:1012F400BFF35F8F2768D9B2787BDAB2884207D010
:101304000326564338688619033EB078002813D064
:10131400E0681B0A8218013A1278DBB200209A4274
:1013240002D1380000F08AFA6368BFF35F8F0022AD
:101334001A6085F31088F8BD22699342F4D12061C4
:10134400F2E70000F0B506000F0006246442E5173A
:10135400A4197D4185B08D4202D803D1844201D9BC
:101364000024002500F0CEF822002B00121A8B4135
:10137400002B08DC01D1002A05D13000390000F02F
:10138400CBF805B0F0BD002302930193104B22006B
:10139400009310482B00FFF73BFF0028EDDB2000F3
:1013A4002900FFF773FD0028E7D10B4B1868EFF312
:1013B400108272B601680029FCD0BFF35F8F1B68EE
:1013C400BFF35F8F0021196082F3108820BFE6E726
:1013D400190D00205C290020482C002070B5040061
:1013E4000D0000F08FF800196941002902DA01208C
:1013F40002494042FFF7A6FF70BDC046FFFFFF7FD2
:10140400FA2210B500239200002101F001F8FFF741
:10141400E5FF10BD7FB5EFF3058305000C00002B3D
:1014240005D028002100FFF731FD04B070BD084E3F
:1014340002930193074B0200009330000B00FFF767
:10144400E7FE011EEDDD20BF3000FFF745FFE8E7B2
:101454005C290020190D0020F7B5EFF3058318006F
:1014640001931038EFF3108772B6194B1A68002AEB
:10147400FCD0BFF35F8F012631008140154B164D20
:1014840069631960154B1B781A00C2409446644680
:10149400002234420AD0124E6C6A8500AE59B4421E
:1014A4000FD3104A8B430D49AA580B70BFF35F8FBB
:1014B400002307490B6087F310889A4200D09047B5
:1014C400F7BD019B08499B005B1819681960EDE79B
:1014D400280100D03C70054000400540A12C0020AC
:1014E4004C2C0020EC2A0020D03F054010B5010010
:1014F400024A0348FFF7C9FA10BDC0465428002029
:101504005F2C0020034B596A0A00986A596A8A4280
:10151400FAD1704700400540054B5A6A8A42FCD311
:101524008A4202D19A6A824200D370475A6AF7E724
:101534000040054070B504000D00FFF7E3FF020012
:101544000B0020002900801859418B4202D804D195
:10155400824202D901204042C117FFF7DDFF70BD6E
:10156400F7B504000D00EFF3108772B61C4B1A6830
:10157400002AFCD0BFF35F8FA3001A4E0193002D05
:101584001BD02000FFF72AFB86420BD0310020003D
:10159400FFF72CFB01212000FFF718FB0123A340D8
:1015A400114A1360114B019A9D50BFF35F8F0023C2
:1015B4000B4A136087F31088F7BD0C4BA2009D50B3
:1015C4000122A2400A4920000B7893430B7031009A
:1015D400FFF72CFB29002000FFF7F8FAE5E7C046E7
:1015E400280100D02912002038600540EC2A002090
:1015F400A12C0020F0B585B01F0004000192FFF774
:1016040081FF8F4203D847D1019B834244D9EFF332
:10161400108372B60393214B1A68002AFCD0BFF3DF
:101624005F8F0126A6401E4B1E4D1B78009333434B
:10163400DBB20293029A1A4B1A70019A231D9B0083
:101644006E635A51184AA3009F502B6A33420AD141
:101654000020BFF35F8F0023104A1360039B83F3C2
:10166400108805B0F0BDFFF74DFF8F42F0D802D1CE
:10167400019B8342ECD8029B009A01209342E8D05C
:101684001F2302001C40A240084B2E626E631A60A6
:10169400034B009A1A70DCE70120E2E7280100D02E
:1016A400A12C0020004005404C2C002080E200E0EA
:1016B40010B5EFF3108472B60A490B68002BFCD006
:1016C400BFF35F8F01238340074A084813620278FF
:1016D4009A430270BFF35F8F00230B6084F310887A
:1016E40010BDC046280100D000400540A12C0020B8
:1016F400032330B50468180053434843033BE318FD
:1017040003389970215C2518002901D12A7030BD55
:101714005970FBE770B50600806873680C0015000B
:101724009847002806D02A0021003000FFF7E0FF88
:10173400200070BD220029003000FFF7D9FF2C00E3
:10174400F6E70122002330B5047B827343730268F9
:10175400C47303200133DDB2AC4205D800236043D7
:101764001218033A537030BD01005943511803391C
:1017740001354D70EEE710B5017342608360FFF7E9
:10178400E0FF10BD70B50400081E21D003210B003A
:1017940043432568033BEB185A78002A18D00026E7
:1017A4005143033969184D784E7001005E70200072
:1017B400FFF7B0FF290006002000FFF7E3FF002E2B
:1017C40006D0002805D0020031002000FFF7A2FF58
:1017D40070BD3000FCE7F7B503273E004E430368B5
:1017E400033E0D00995D04000192FFF7CBFF019BBE
:1017F400002B0CD0E37B002B04D05F432368DF195C
:10180400033F7D70A37B002B00D1A573E573226891
:10181400002805D0032300214343D318033B9970C8
:10182400002396197370FEBD70B5457B0A0029002C
:101834000400FFF7D0FF6073280070BD70B504008A
:10184400081E07D0637B8B4205D101212000FFF7DE
:10185400EBFF012070BD032633004B432568033B97
:10186400EB189A78101EF5D07243033AA818AA5CB4
:101874008A4216D15A780270002220009A705A7057
:101884000132FFF7A8FF617B0200002905D0002880
:1018940010D02000FFF73EFF02006273D9E7002A50
:1018A400EAD07243033AA81842788A42F7D15A78A8
:1018B4004270E1E70A00F0E7F7B5076B04000E0099
:1018C4000192FB0718D50200C02330329B01134359
:1018D400104A1A60456A836AAD010620ED1800F0CB
:1018E4007BF90D4900F01AFBAD020100280000F05D
:1018F40015FB0021FFF71EFEE16A019B4E403340B9
:101904001E00220080232C325B0113431E602763D8
:10191400F7BDC046010300004E0E000070B506007E
:1019240006200C0000F058F92100C00000F0F6FA7F
:101934000124C50907D00D4B9D4214D87F231840BC
:1019440000192C0045080022300011007462B562B1
:10195400FFF7B2FF062000F03FF9A101491980000A
:1019640000F0DCFA70BD0025014CECE7FEFF00003E
:10197400FFFF000070B5040006200E0000F02CF9F3
:10198400051E2BD0184B9C422AD08023DB03174A18
:1019940017491360174A136018008A689043FBD1F3
:1019A400154B8021E3185A425341144A5B00490005
:1019B400995220003100FFF7B1FF6E22050060212B
:1019C4002000FFF779FF220080232C329B01134370
:1019D40010221A600A4B23630323A364280070BDFA
:1019E40080231B04D3E7C0460080034000E000408E
:1019F40000C0004000F000400080FCBFA22C00208A
:101A040001030000F0B585B01D000A9B070000919A
:101A140000200392AB4241D80C242B0E02932D02DA
:101A240003000A9A2800029900F0B6FA7C432B4B73
:101A34000600E4186368834200D260603B1FDBB297
:101A44000193C023019A9B012343012A28D8009AB9
:101A5400012A25D102321A60009BA2681A42FCD0E6
:101A6400039A236852015A408021E02349011A4015
:101A7400019B21430A60012B23D9802380229B01EF
:101A8400234312011A602800002332000299666081
:101A940000F082FA124BBF00D851012005B0F0BD0E
:101AA400802212011A600E4BBA00D1580029D7D0F7
:101AB400586900F033FA431C032058430338FDD21D
:101AC400CEE72368009A5340032213400B6001239E
:101AD400009A9340A2681342FCD0CEE700800040F5
:101AE400FC2B002073B50C2000F0CAF8FEF7A4FF0D
:101AF40000280AD000232C4A2C489900013388502E
:101B04000A2BFAD12A4B536273BD2A4CA06700F00A
:101B14001FF90122284B1A60636C012BFCD10322AC
:101B2400264B1A60A66B012EFCD102250524310038
:101B340000950623224A234800F054F8230031007C
:101B44000094214A214800F04DF8214B2900214DF1
:101B5400009300220420FFF755FF2B0031000022E0
:101B640020000095FFF74EFF0022104C11002300C7
:101B740000940720FFF746FF002223001100009481
:101B84000820FFF73FFF0022094B110000930920B2
:101B94002300FFF737FF00222B00110000950620D9
:101BA400FFF730FFB0E7C046FC2B0020006CDC02DE
:101BB4001BB70000008000403CB0004030B0004043
:101BC400002F685900800240008C864700C0024004
:101BD400001BB70040597307014B8000C058704781
:101BE400FC2B0020F8B50400204817001E000D004F
:101BF40000F094F90100380000F090F9069A3304DB
:101C0400120313432268002A0FDA3F2122680A4094
:101C1400AA420AD1A2681205120D824205D1EE2110
:101C2400E268C9020A409A421BD0114A944219D070
:101C3400802252010F49104E0A6010490A601700B1
:101C4400B1688F43FBD1C022211D92010A43212197
:101C54002560A060116021680029FCDAE360082394
:101C64001360F8BD80229201E4E7C046001BB70070
:101C740000C0024000E0004000C0004000F000400E
:101C84008023024A9B000343D362704700800540CF
:101C9400024B1A68024B5A607047C046302C002031
:101CA4000080054003008020124AC00510B5124C84
:101CB400106012480460E020114CC004002906D0D2
:101CC4002060002B05D180231B06236010BD10600B
:101CD400F7E7FA208022C00058435204094B90428F
:101CE40005D21860FFF7D4FF8023DB05EDE7064A31
:101CF4001A60F7E700B00540FCFF0100082001402E
:101D040000A00540302C0020FFFFFF0070B5040048
:101D1400100080220A4BD2051A600A4B002C0CD00A
:101D24000125094A2C43DA61084A62401A62596261
:101D34009C620021FFF7B6FF70BDDC61F9E7C04685
:101D440000B0054000800540D3C007B02D3FF84FD8
:101D5400AA22064B12011A602F220549DA60054AAD
:101D640011605A68002AFCDA7047C04600400240FD
:101D740000B0FA0000600240234B244A70B51A6098
:101D8400234A244C1500244B23601800916888438F
:101D9400FBD1224E224B9E4224D3FFF7A3FE214BBC
:101DA4002360AB68DB018033FBD140221E4B1F480C
:101DB4009A675A671A67DA661D4B984215D31D4C09
:101DC4001D4DA168C022280000F08EFBA560FEF71F
:101DD400B3FEFFF727F8FFF7FDF9184C184B9C42A8
:101DE4000FD370BD08CE9847D4E7040003680834C5
:101DF400002B03D0FFF73DF82000DDE7FFF72CF8B8
:101E0400FAE708CC9847E9E700E00040BFCDFBFEC5
:101E140000C0004000F00040FE7F3C00B8290020D4
:101E2400C8290020FFFFFF0100F00140B029002075
:101E3400B829002000ED00E000000020C82900209F
:101E4400D029002000BEFDE710B5FFF7FBFF00001E
:101E54000FB407B5084800F00FFC049B002B07D013
:101E640005A91800019100F017F8044800F004FCDB
:101E74000120FFF7E7FFC0467628002084280020D1
:101E840010B50148FFF7E4FF8628002010B50028AC
:101E940001D000F0D7FB10BD1FB5094B1C68002C06
:101EA40009D00122030000910648524203A9A04729
:101EB400012004B010BD00F0DFFB2000F9E7C046AC
:101EC4002C2C00205D1C002001480421014B1847E4
:101ED40090290020C91C0020142310B50100188883
:101EE40004331B88984710BD162310B501001888C9
:101EF40002331B88984710BD70B504000126890081
:101F04004518AC4201D1300070BD2068FFF7E4FFF2
:101F140001C4431E984140420640F2E7114A936FC0
:101F24009B0813D210665166002905D0FFE7FFE72E
:101F3400FFE7516F106F704704B5002801D00020EF
:101F4400C04300F0D7FB002104BDC046F0B5146EB9
:101F5400556E576F166FFFF7E5FF146655665767A2
:101F64001667F0BD000000D094464A4A926F92086A
:101F7400624601D228E0C046F0B5464E346E756E16
:101F8400776F366F00F020F89446424A146655661F
:101F9400576716676246F0BD94463E4A926F9208B0
:101FA400624601D254E0C046F0B53A4E346E756EC6
:101FB400776F366F00F04CF89446364A14665566CF
:101FC400576716676246F0BD002B24DB11D0002949
:101FD4003EDA00B5C943404200D1013100F038F87F
:101FE400C943404200D10131DB43524200D10133A5
:101FF40000BD002AEBD1002801D1002905D0002022
:10200400C90FC90701D1C043410800B500F072FBF4
:102014000022002300BD00B500290ADBDB43524245
:1020240000D1013300F014F8C943404200D101311A
:1020340000BDC943404200D10131DB43524200D1CB
:10204400013300F005F8DB43524200D1013300BDF7
:10205400002923D1002B18D1002A0CD0BC460D4FE7
:1020640038667A6600210023FFE7FFE7FFE77A6F0F
:10207400386F67467047002801D00748010000B553
:1020840000F038FB0022002300BD02000B000020FA
:1020940000217047000000D0FFFFFFFF002B00D09D
:1020A400BFE0130C28D1002AE7D080B4114F396661
:1020B4007A66FFE7FFE730B4040C7B6F396F1B04CB
:1020C40023433B667A66FFE7FFE7FFE7C04684B237
:1020D4007B6F3D6F1B0423433B667A66FFE7FFE794
:1020E400C04600232C042D0C7A6F386F0019694107
:1020F400B0BC7047000000D0F0B594460025140E23
:1021040001D112020835140F01D112010435940FC4
:1021140001D192000235D40F01D152000135D40B04
:102124000134254F7C66254C3C660E0C93B2FFE7C8
:10213400FFE7FFE73C6F6643360C7703BE46734305
:10214400DF0B5B04C01AB941130C7343DB18C91AC3
:10215400CE086643360CB64493B273431F0F1B017B
:10216400C01AB941130C73431F0B1B05C01AB941A4
:10217400860D8F023E436643360C092D24DB520A3A
:102184007243801A7703460A6643360C16235B1B98
:10219400DE40DF40BF1964466643821B7046043547
:1021A40006330100D940A840C01900D30131A2422E
:1021B40006D20023F0BD0000000000D0FFFFFFFFA7
:1021C400121B0130F3D3F1E709277F1BFE4064465D
:1021D400A2B27243801A00D20139220C7243130C4A
:1021E4001204821A99410B0070460435133701001A
:1021F400F940A840801900D30131002B02D1A2423A
:102204000AD2F0BD013000D30131121BFAD2013BD6
:10221400F8D1A24200D2F0BD013000D30131121B2B
:10222400F7E7F0B51C0C00D080E00CB400251C0AC4
:1022340004D11B02160E3343120208351C0B04D1C1
:102244001B01160F3343120104359C0B04D19B0070
:10225400960F334392000235DC0B02D192185B4196
:1022640001351C00971864410134464F7C66464C86
:102274003C660E0CFFE7FFE7FFE7C0463C6F664392
:10228400360C7703BE4697B27743C01B00D20139A0
:10229400C01B00D201399FB27743C91BC91B170C5D
:1022A40077437E04FF0B801BB941CE086643360C8E
:1022B4000C2D33DBB644120B1F053A431B0B97B2AC
:1022C4007743C01B00D201399FB27743C91B170C57
:1022D40077433E043F0C801BB941860D8F023E4379
:1022E400664329277F1BFE400C3D7746AF40BF194C
:1022F40030BCA2B2ABB272437343801A9941220C30
:102304007243130C1204801A994102000B00013726
:10231400001BA941F9D2781E0021F0BD0C277F1BB8
:10232400FE4077467F0BAF40FF19E0E700245D1CB9
:1023340007D0144F7D663966FFE7FFE7FFE7FFE745
:102344003C6F95B29EB265436643401BB141150C88
:102354001E0C6543664336042F0C3E432D04401B7C
:10236400B141994204D202000B0020000021F0BDCB
:1023740001D19042F7D3801A994101349942F2D3A2
:10238400F6E70000000000D0FFFFFFFF132370B545
:102394001C780F4D012C0ED100230E499A000133F5
:1023A400A950202BFAD10B4BAB640B48FFF794FDDB
:1023B4000A4B186070BD012CF5DD0948FFF794FD48
:1023C40080220100280000F08FF8022CEDD1EAE70A
:1023D400A82C0020B52100204C330000442C002000
:1023E4005344000007B5604601880A0A0230DF2A18
:1023F400FAD1C9B2820804D3028840880004104389
:1024040000E00068014A5050039007BDA82C00204A
:1024140051434343C9188C46110C83B24B4310B447
:10242400040C614392B280B2504362431C041B0CFF
:10243400001910BC59411304120CC01851416144D5
:1024440070470000132310B510481C78FFF74CFDAB
:102454000100012C13D10E4C5422200000F044F84A
:1024640015230C4A990001336250202BFAD12262C1
:10247400E2610948FFF730FD084B186010BD012CDC
:10248400F7DD8022024800F02FF8F2E753460000FF
:10249400A82D0020712200204C330000442C002081
:1024A40007B5604601880A0A0230DF2AFAD1C9B2A8
:1024B400820804D3028840880004104300E00068C6
:1024C400014A5050039007BDA82D00200148042163
:1024D400014B1847A0290020C91C0020014B1B6890
:1024E40018470000A0290020014B5B681847000032
:1024F400A0290020030010B508001B6811009847AC
:1025040010BD0000F8B5437D05000C001600002B3B
:1025140030D10368110020009847F8BD002927D066
:10252400631E5B5C0D3B5A425341DBB2625C4F1C41
:102534000A2A0CD1002B0AD1814203DD091A2B6827
:10254400201898470E4802212B6898473800390014
:102554008E42E3DC864210DD311A2B68201898473E
:10256400A419013C23780D3B5A4253412B75D4E7FF
:102574002B7DDBE700210800EAE7002ECDDDEFE745
:10258400EE28002010B5FEF7BDFF0023054A1218FF
:102594004B41002B02DA0122034B5242034800F064
:1025A4004CF910BD40420F00FFFFFF7FB02900200F
:1025B40010B5024800F058F910BDC046B0290020FB
:1025C400F0B585B006000C001D000092FFF7DAFF9D
:1025D4000190631C03D1300000F0B2F80400154FE1
:1025E400002D00D1144F154B1D68002D09D1019BFE
:1025F400002B01D0FFF7DCFF601E8441E0B205B080
:10260400F0BD2B68002B13D00D4B1B68002B01D0A1
:10261400AB420DD1220031002800B847009B002BAB
:1026240006D002ABD91D0A23012228000B70B8473B
:102634002D69DAE7C5220020D5220020242C0020B1
:10264400282C002013B56B460400D81D002301215B
:102654001A000470FFF7B4FF200016BD054B10B537
:102664001C68002C00D110BD6368002B00D0984773
:102674002469F6E7242C002070B5050000F060F80A
:1026840004000100002301222800FFF799FFFFF74F
:10269400E5FF200070BD000010B501000148FEF701
:1026A4003BFA10BD5C2C002007B5044B01000093DD
:1026B40000220B230248FEF705FA0EBDF028002085
:1026C4005C2C002010B50520FFF786FA014B18603A
:1026D40010BDC046A82E002010B5FFF7F3FF10BDB3
:1026E40002B4714649084900095C49008E4402BCA1
:1026F4007047C0467047C04630B5032A0CD9030062
:102704000B439B0719D103680C68A34215D1043A03
:1027140004300431032AF6D8551E002A0BD00023B6
:1027240003E05A1C9D4206D01300C25CCC5CA2425A
:10273400F7D0101B00E0002030BD551EEFE7C04667
:1027440010B583070AD00300032102E001330B42D2
:1027540005D01A78002AF9D1181A10BD0300196897
:102764000C4A0D4C8A188A4322420FD15968094AEF
:1027740004338A188A43224208D15968054A04332B
:102784008A188A432242F1D000E001331A78002AE1
:10279400FBD1E1E7FFFEFEFE80808080F8B5C046F5
:1027A400030010B50068EFF3108472B60268002AC3
:1027B400FCD0BFF35F8F04229A56002A0CDAD02291
:1027C4000120120612681A711B68BFF35F8F002282
:1027D4001A6084F3108810BD081EF5D000200A602A
:1027E400F2E7F7B51E00D023050017001B061B688F
:1027F40001932968EFF3108372B60A68002AFCD0AB
:10280400BFF35F8F297900242A687F2908D90199A9
:102814002971BFF35F8F146083F310880120FEBD1C
:10282400BFF35F8F146083F3108838003100FEF724
:10283400F1FD0028DDD02000F1E773B501A9040003
:1028440016001D00FFF7ACFF00280CD1D0221206A1
:10285400019B12785BB252B2934204D032002B0037
:102864002000FFF7BEFF76BD0168EFF3108372B658
:102874000A68002AFCD0BFF35F8FFF22027102684E
:10288400BFF35F8F0021116083F3108840BF70474E
:10289400084A10B51378002B0AD18023064807494B
:1028A4005B051C68C45004338B42FAD101231370B6
:1028B40010BDC0465E2C0020FC2A00100001001050
:1028C40010B5024B0133984710BDC046FC2A0020C6
:1028D4008023F0B5421804000D0085B09B039A4292
:1028E40001D9FFF7CDFA14271826388833881249FE
:1028F4009847338803901149388898473388029061
:102904000F493888984733880E490190388898478A
:102914000600FFF7BDFF039B9847029B9847802260
:102924002000D82329005202019CA047B047FFF79A
:10293400C7FF05B0F0BDC046494600004558000039
:1029440052450000464300008023F0B5170085B0CF
:102954008218040003919B039A4201D9FFF790FA6D
:102964001426182530882B88104998472B88029004
:102974000F49308898472B8801900E493088984732
:102984002B880D490090308898470500FFF780FF99
:10299400029B9847019B98473A0020000399009BAB
:1029A4009847A847FFF78CFF05B0F0BD49460000E3
:1029B40045580000525000004643000053594E430E
:1029C4000000000000000000000000000D010020D5
:1029D400524541440200000000000000150100209F
:1029E400550200204353554D020000000100000031
:1029F4003501002035040020435243430200000007
:102A040001000000590100202104002045524153D7
:102A14000200000000000000000000001502002079
:102A240057524954020000000100000061010020D7
:102A3400FD0300205345414C03000000000000004A
:102A44000000000089030020474F474F01000000A9
:102A54000000000000000000E5040020494E464F3D
:102A6400000000000500000000000000A10100209B
:102A7400424F4F540100000000000000C901002033
:102A8400D9010020486172647761726520616C61CC
:102A9400726D20256420616C726561647920636CB9
:102AA40061696D6564000A2A2A2A2050414E49430F
:102AB400202A2A2A0A0048617264206173736572AD
:102AC400740052656C6561736500626F6F74325F88
:102AD4007732357130383000312E352E310070693F
:102AE400636F00626F6F746C6F61646572004D6137
:102AF4007920323920323032340006005250BBFF84
:102B04003CB6AE28002006005250E182887F9A2805
:102B1400002006005250D3F07542922800200D0A7E
:102B24004E6F20444D41206368616E6E656C732066
:102B340061726520617661696C61626C6500000098
:102B44001000000000000000000001000000000070
:102B5400000000000000020000000000000000006F
:102B64000000030000000000000000000000FF005F
:102B74000000000001B5486801318E4600477046E8
:102B840009380149884701BD5D0B002074290020E4
:102B940000000000D0290020602C0020000000006C
:102BA40000000000702C0020000000000000000065
:102BB4001000000000000000000000000000000001
:102BC400503300004C3300005433000052330000F3
:102BD4004D5300004D4300005334000043340000C3
:102BE40000000000000000009D220020991C00202D
:102BF4005D21002015220020ED000020A9240020E2
:04000005100001E9FD
:00000001FF
