:020000041000EA
:1000000000B5324B212058609868022188439860DF
:10001000D860186158612E4B002199600221596106
:100020000121F02299502B49196001219960352056
:1000300000F044F80222904214D00621196600F024
:1000400034F8196E01211966002018661A6600F04E
:100050002CF8196E196E196E052000F02FF8012189
:100060000842F9D1002199601B49196000215960AB
:100070001A491B48016001219960EB211966A021F2
:10008000196600F012F800219960164914480160C1
:100090000121996001BC002800D000471248134993
:1000A000086003C880F30888084703B5996A0420EC
:1000B0000142FBD001200142F8D103BD02B5186610
:1000C0001866FFF7F2FF186E186E02BD00000240BE
:1000D000000000180000070000035F00212200005C
:1000E000F4000018222000A00001001008ED00E03C
:1000F00000000000000000000000000074B24E7A12
:1001000000200420F7010010C3010010C5010010F9
:10011000C1010010C1010010C1010010C101001097
:10012000C1010010C1010010C1010010C701001081
:10013000C1010010C1010010C9010010CB01001065
:10014000CD010010CD010010CD010010CD01001037
:10015000CD010010CD010010CD010010CD01001027
:10016000CD010010CD010010CD010010CD01001017
:10017000CD010010CD010010CD010010CD01001007
:10018000CD010010CD010010CD010010CD010010F7
:10019000CD010010CD010010CD010010CD010010E7
:1001A000CD010010CD010010CD010010CD010010D7
:1001B000CD010010CD010010CD010010CD010010C7
:1001C00000BE00BE00BE00BE00BE00BEEFF3058054
:1001D000103800BEF2EB88713C46001060460010FB
:1001E0003402001090A31AE700201F49086006C8D7
:1001F00081F3088810471D48006800282FD10DA4FE
:100200000ECC002902D000F012F8F9E71849194A7B
:10021000002000E001C19142FCD1174988471749ED
:1002200088471749884700BEFDE701C901C29A42C5
:10023000FBD3704760460010C0000020B0030020D0
:100240005049001000000420000004205049001014
:10025000001004200010042000000000704709482E
:1002600003F060F90047000008ED00E0000000D056
:10027000B00300201C0F00209D3300101108001057
:10028000913400105756000006005250ABB3605333
:10029000A440001006005250861C0302B440001017
:1002A000060052505422A29DC44000100500525036
:1002B000DE65F46850490010F8B5C0460448054BA7
:1002C00010B5834203D0044B002B00D0984710BDDB
:1002D000B0030020B00300200000000006480749DA
:1002E000091A8B10C90FC91810B5491003D0044B57
:1002F000002B00D0984710BDB0030020B0030020B1
:100300000000000010B5074C2378002B09D1FFF73F
:10031000D5FF054B002B02D0044800E000BF0123AD
:10032000237010BDD806002000000000503F0010D0
:10033000054B10B5002B03D00449054800E000BF71
:10034000FFF7CCFF10BDC04600000000DC06002017
:10035000503F00102839C9B270B52B2908D8394B45
:1003600089005B589F4627230022C254012070BD9C
:1003700027230122C254F9E73349344803F03AFCF9
:100380000121042001F00CFC0521052001F008FCEE
:100390000121062001F004FC0121032001F000FCF2
:1003A000D024022001F026FC0423240663620520E9
:1003B000A36101F01FFC2023802563620720636195
:1003C00001F018FC002201210720A56201F000FCC9
:1003D0000120A56103F0B4FC1D4B1E4A1870F023E8
:1003E000C002DB0118401C4B03431360BEE7100042
:1003F00002F062F9BAE7900080180021400002F094
:1004000047F9B3E764200021504302F041F9ADE71A
:100410001000002102F03CF9A8E7D0231B06002AB7
:100420000CD020225A61A1E7D0231B06002A02D05B
:1004300004225A619AE704229A6197E720229A617E
:1004400094E7C046503F00104054890000C003406C
:10045000170F00201C0E0020110008001439C9B22B
:1004600070B504000C2903D82148890041588F46F3
:10047000002070BD23682C21DA78200000236569F4
:10048000A8472368492120005A7801F0B9F80120D3
:10049000EFE7236849211A78200001F0B1F82368BA
:1004A0002C219A78200000236569A8470120E0E705
:1004B000A0201049C005097889010C188020256901
:1004C00040040542E3D123600B4B63600B4BA260F9
:1004D0001B68E3600A4B9C4661440B680342FCD1F5
:1004E0000120C6E720004A2101F08AF80120C0E778
:1004F00000400010170F002008C003401C0E002011
:1005000010000050F0B5D6464F464646C0B5A14D46
:1005100082B02B780133DBB22B70082B6BD86B7851
:100520009D4E0133DBB29D4F6B70082B00D979E0F3
:10053000AB780133DBB2AB70082B00D987E0EB78E6
:100540000133DBB2EB70082B00D995E02B79013336
:10055000DBB22B71082B00D9A3E06B790133DBB23E
:100560006B71082B00D9B1E0AB790133DBB2AB7111
:10057000082B00D9BFE0EB790133DBB2EB71082B1C
:1005800000D9CDE02B7A0133DBB22B72082B00D9D6
:10059000DBE06B7A0133DBB26B72082B00D9E9E048
:1005A0007F4B002498467F4B9A4608239946504635
:1005B0002B5D3A5D9B00C358315D01934B4640462D
:1005C00000930134082301F029F90A2CEFD1764C6D
:1005D0004046210001F00CF840214008091A230090
:1005E0002022404689B200F077FF02B0E0BCBA4654
:1005F000B146A846F0BD03F0BFFB782102F0C4FF6E
:10060000654E317003F0DCFB382102F0BDFF0023A2
:10061000624F2B7039706B780133DBB26B70082B33
:1006200000D885E703F0A8FB782102F0ADFF7170D8
:1006300003F0C6FB382102F0A7FF002379706B702E
:10064000AB780133DBB2AB70082B00D877E703F04F
:1006500093FB782102F098FFB17003F0B1FB3821D1
:1006600002F092FF0023B970AB70EB780133DBB27C
:10067000EB70082B00D869E703F07EFB782102F0CD
:1006800083FFF17003F09CFB382102F07DFF002313
:10069000F970EB702B790133DBB22B71082B00D88A
:1006A0005BE703F069FB782102F06EFF317103F024
:1006B00087FB382102F068FF002339712B716B79B9
:1006C0000133DBB26B71082B00D84DE703F054FB0C
:1006D000782102F059FF717103F072FB382102F0AA
:1006E00053FF002379716B71AB790133DBB2AB71CE
:1006F000082B00D83FE703F03FFB782102F044FFCE
:10070000B17103F05DFB382102F03EFF0023B971A7
:10071000AB71EB790133DBB2EB71082B00D831E719
:1007200003F02AFB782102F02FFFF17103F048FB60
:10073000382102F029FF0023F971EB712B7A013384
:10074000DBB22B72082B00D823E703F015FB7821CE
:1007500002F01AFF317203F033FB382102F014FF6C
:10076000002339722B726B7A0133DBB26B72082B68
:1007700000D815E703F000FB782102F005FF717245
:1007800003F01EFB382102F0FFFE002379726B722A
:1007900006E7C046440E0020500E00205C0E0020EC
:1007A000780E0020980100203440001010B50B4C4A
:1007B0000B4B0C4A20000C4900F0E4F8200000F03C
:1007C0004FF92000002100F053F92000C82100F06B
:1007D00057F92000054900F08DFE10BD780E00206D
:1007E000550300105D0400106441001070410010BA
:1007F00010B5FFF7DBFF054C200000F0A9FFFFF765
:1008000081FE200000F0B0FFF6E7C046780E002021
:1008100010B503F0FDF8FFF7EBFFC046002903D049
:100820000A2901D0080070470048FCE7FFFF0000DC
:1008300026230022C254704710B582B004AC24783D
:10084000009400F0E3FE02B010BDC046382370B53E
:10085000C15C0268CD008587137CDB0043873923A8
:10086000C65CF300C387547C8919A14202DDA41B36
:10087000E400A5B2402143525B19023143524423A4
:10088000918AC152D28A0233C25270BD70B5002320
:10089000482543534433C25A0633C252036C542290
:1008A000C364502652230400C35A825A815B5620E7
:1008B000205A82B00090200001F0C0F8002804D136
:1008C00000228C23E25402B070BD8C230122E2543A
:1008D000A35B625B9A4200D263535223E25A083B05
:1008E000E15A914200D9E2525423E25A083BE15ABC
:1008F000914200D2E2525623E25A083BE15A914219
:10090000E1D9E252DFE7C04670B50400E36200259A
:1009100038236163A565E25402220133E554343380
:10092000E5542033E5540433E5540498FF32013391
:10093000E2520368206320009847064B200023659D
:100940006365236B5B689847200000F0CDFD702342
:10095000E55470BD0000FFFF70B50024232504603E
:100960004455033544558461023DFF3444550435F4
:1009700044550361049B8160C260436100F068F8E4
:1009800070BDC04670B504000F260B4884B00D0042
:1009900000930A4913006E4402002000FFF7DCFFB9
:1009A000300000F06FFF32780100054B2000009509
:1009B000FFF7AAFF04B070BD590B0010911A001088
:1009C00091180010222301608A7CC2547047C046EF
:1009D00070B504000023002228214569A8470023A0
:1009E000E568002214212000A847200001224B21A5
:1009F00000F006FE236820001A79292100F000FE8D
:100A0000200000224B2100F0FBFD236820001A7912
:100A1000292100F0F5FD200001224B2100F0F0FD1E
:100A20002368292120005A7900F0EAFD70BDC046F4
:100A300010B582B06C462371049B6171A271009362
:100A400001226B460F218468A04702B010BDC0464A
:100A500010B50023002209218468A04710BDC046BC
:100A600010B5002300220A218468A04710BDC046AB
:100A700010B50A0000230B218468A04710BDC046B2
:100A800010B50A0000230E218468A04710BDC0469F
:100A900010B50023002210218468A04710BDC04675
:100AA00010B50A0000231521C468A04710BDC04638
:100AB00010B50A0000231621C468A04710BDC04627
:100AC00010B513000A00C4681721A04710BDC04626
:100AD00010B5002300221821C468A04710BDC046ED
:100AE00010B5002300221921C468A04710BDC046DC
:100AF000F0B583B06B4606000C00DD1D2178192986
:100B00000DD817291FD814D1637801212A0030008D
:100B100002342B70FFF7D4FF21781929F1D9FE296F
:100B200018D16278292130002A70023400F068FD63
:100B3000E4E714290ED9627800233000F7682A70A0
:100B40000234B847DAE7002300223000F7680134A6
:100B5000B847D3E703B0F0BDF0B5C64605000C00BA
:100B600016001F0000B516290CD8142923D900211E
:100B700000F026F83100280000F032F8012080BC97
:100B8000B846F0BD17290BD00B00183B012B14D829
:100B90002B693200984621003B002800C047EEE751
:100BA000012100F00DF82B693200984621003B002E
:100BB0002800C047E3E71429EAD00020DFE7C04659
:100BC00010B50A00002320210469A04710BDC046CB
:100BD00010B513000A0004691721A04710BDC046D4
:100BE00000B583B06B46DA1D11700121FFF7F0FFED
:100BF00003B000BD435C401840780002184340BA7F
:100C000080B27047002070478378C0780002184394
:100C100040BA80B27047C04603784078000218435B
:100C200040BA80B27047C046012B09D0022B04D0D5
:100C3000002B08D1801880B27047801A80B2FBE781
:100C4000401880B2F8E7401A80B2F5E7012B09D0CE
:100C5000022B04D0002B08D1401880B27047401AF4
:100C600080B2FBE7801A80B2F8E7801880B2F5E71F
:100C7000F0B5DE4657464E4645460200E0B58DB01B
:100C80000166944606906020002360440373783325
:100C9000D35C83460C7810001A00072B03D901316E
:100CA000083A0166D2B20120404298405B46844334
:100CB0001A7363B298465B46404698727923069849
:100CC0000F78C55C17415319DBB2072B00D98FE1B0
:100CD000F8B201225242AA4090435A465D4613732D
:100CE00042B2EA720A929222069E0290B25CAA7303
:100CF00055426A415D46EA737A22B65C0D78F21875
:100D0000D2B21D41072A00D960E1EBB204935B46E1
:100D10001A737B23069DEB5C0D789C469B18DBB217
:100D20001541072B00D940E1EAB292465A461373A7
:100D30000F787C2238001841069DAA5C0390D518D4
:100D4000EDB2072D00D91DE1C1B25B461D73012331
:100D50005B421D009540A9430D0001210F00D218F0
:100D6000D2B29740ED1B6AB291464246002A00DC9F
:100D700000E11A00B240049DF61895430A00F6B24D
:100D8000B240AD1A6246D218D2B29140029A6DB208
:100D90008E1A6246934052469A435B461B7CB61AB3
:100DA00098465B4676B29888320043462900FFF7A2
:100DB0004DFF5B463200988007002900D8884346E3
:100DC000FFF732FF5B46D88043460200022B00D17A
:100DD0001BE100D996E1002B00D123E10A9BA11869
:100DE000F81A01307B1C9BB289B287B2069C009135
:100DF0002000390000F022FE002800D1BAE00022D5
:100E00006823E2525B461B7B07924A46276E00240A
:100E10000B927621069A3D78515C1D41CA18D2B2D8
:100E2000072A00D95FE1EBB20120404288408343AA
:100E300099465B461A73772306993878C95C104146
:100E40008B18DBB2072B00D93FE1C2B20120404230
:100E50008840824308925A4613734B465F46099373
:100E6000E3B29A466B46099E1B7F5246B1469A46AC
:100E70000292BB7A9D1A984653465BB29B467B7B97
:100E8000EDB2002B00D1D3E04E4694195346D9461B
:100E9000E4B2B5420ED84246A41A0133E4B2DBB242
:100EA000A04505D8A41A0133E4B2DBB2A242F9D9B5
:100EB0005AB291464A467A72089ACB4616003C725C
:100EC000059309E0049BE41A059BE6B20133DAB20C
:100ED0005BB200249B460592BB7A04931B1BDBB2DA
:100EE00098461D1CB34200D9351C62B292465A4640
:100EF000FB88B888029307923A7C514691461300CA
:100F00005A46FFF7A3FE4B465A46514603900298B5
:100F1000FFF78AFE9221BB7B02000698EDB2435494
:100F20004B4603990093A4192B0000F07BFBE4B21D
:100F3000B045C7D95B4664B27B72069B3C72397B75
:100F4000186E4B1C0278DBB2D9460A41072B00D938
:100F5000A5E03B73D20783D4BB46C84607000A9A74
:100F6000424500DD55E70B9B069999465B469A7B07
:100F70009223CA5448460DB0F0BCBB46B246A946BF
:100F8000A046F0BD481C81464F460698083D0766BE
:100F90004978EDB289460821C91A4B46C9B28B403F
:100FA0001900039B1943C9B2CFE606984F1C076688
:100FB0000820814648464978821AD2B29140294396
:100FC000CAB2083B92463900DBB2AFE606984F1C26
:100FD00007660820844660464978C31ADBB2994008
:100FE0000B002B43DBB2083A39000493D2B28EE6F1
:100FF0004E1C0666487808218A1AD2B29040083BF7
:1010000038433100C0B2DBB263E601210A980C1B01
:10101000091A7B1C50183C19511C9BB289B282B230
:10102000A7B2E3E60A99E31941189BB289B2DDE65B
:10103000BB88082603936B469E573B7C92241A007C
:10104000F8880493FB7B06990B55130014003100BC
:101050005A46FFF7E9FD2300310005905A460398F0
:10106000FFF7F4FD2B1C01004D4500D94B46049AB7
:1010700006980092DBB2059A00F0D4FA029C4C4428
:10108000E4B24D451ED84346E41AE3B299465346AE
:101090000133DBB29A4600231A000293E9E60825E1
:1010A000069B461C1E664078CB1F691AC9B2884051
:1010B000DBB202433B73D20700D5D1E6BB46C8463C
:1010C00037004CE75346D946F4E6069E7D1C35664C
:1010D00008267D78B21AD2B295402A00083B024316
:1010E000D2B2DBB2B2E6069E781C30667E78082764
:1010F000FB1ADBB29E403300083A2B430700DBB2F9
:10110000D2B291E6032B08D10A9B041BFB180134D1
:10111000411C9BB289B2A2B268E601003B0065E6C1
:1011200070B5846D0E001734FF2911D8602935D9A8
:101130008823C35AE4186378002B07D02278A01CB8
:10114000B24204D0E4186378002BF7D1002070BDC0
:101150008A23C35AE41825002800FFF75DFD2418F0
:101160002800FFF751FD04358642F5D863782278D0
:101170001B0213435ABA92B2002BE7D096420BD00F
:10118000A378E418637822781B0213435ABA92B208
:10119000002BDBD09642F3D1E01CD8E74029CAD916
:1011A0008623C35AE418CEE7F0B5DE464E464546E0
:1011B00057466A230022E0B5C25483B004000D00F4
:1011C000FFF736FB40235B429B46002399467C4B4E
:1011D000002698467B4F0096297820006368984740
:1011E0000100B84200D190E001354045F4D0200024
:1011F000FFF796FF8146002800D1DDE023000022A2
:10120000603320661A737832A25C00781100072AD6
:1012100007D901218C46E14449462166110008396D
:10122000C9B20126764296407922B043197398726A
:10123000A25C94464A46107862468A18D2B20841A7
:10124000072A00D9A3E0C1B2012066464042B0405F
:101250008143D97292211A73615C9973484241416A
:10126000D9737A21605C4946097811418C4681180E
:10127000C9B2072900D974E06246D2B2012676428B
:101280008640B24301260138C0B2B4468640902061
:10129000921B22547B22A25C8918C9B2072904D967
:1012A000E1444A4608392266C9B27C221973A05C1F
:1012B0004A4612780A4192464218D2B29446072A08
:1012C0003CD85246D2B26146197301235B42834037
:1012D0009A43130001220138C0B282409B1A5BB2CC
:1012E0009BB29946009E4E44B3B200935B46403396
:1012F00000D071E79023E35629789B46200063686D
:1013000098470100B84200D06EE76A23E256009E7B
:10131000002A0BD02633E3569B184A46F3189B1A33
:101320009EB25B46002B01DD5E44B6B2300003B0D6
:10133000F0BCBB46B246A946A046F0BD4A460826C8
:10134000013222664A46B1464E465278711AC9B2F7
:101350008A4051460A4361460839C9B28C46D2B226
:10136000B1E701264E44B24626664E4676780839E5
:1013700001960826B1464E46B21A019ED2B2964058
:10138000320066463243D146D2B2C9B276E7012670
:101390004E44B24626664E467678083A01960826AE
:1013A000B1464E46711A019EC9B28E4031000143CA
:1013B000D146C9B2D2B247E70023994696E7C04664
:1013C000FEFF0000FFFF0000F0B5DE4657464E4628
:1013D0004546E0B583B01E00040089469046FFF7FD
:1013E00027FA002301933A4B3A4F9A4670239B46C3
:1013F00020003178636898470500B84234D0013640
:101400005045F5D05B46E35C022B56D03BD8002B11
:1014100046D0E36D200098474B46181A434680B2E9
:101420006422A05202322900A3522000FFF778FE66
:101430000023011E07D02000FFF71AFC019A83B297
:10144000D21892B201925A46A25C022A30D013D826
:10145000002A21D043449BB298462000317863682B
:1014600098470500B842CAD1019803B0F0BCBB460A
:10147000B246A946A046F0BD032AB9D14246D31AC6
:101480009BB29846B4E7032B1FD1E36D2000984729
:101490004844434680B2C3E74B449BB29946A7E712
:1014A000E36D200098470300434448469BB2B7E7EA
:1014B0004A46D31A9BB299469AE7E36D20009847B3
:1014C00043461B1A9BB24846AAE743464846A7E74D
:1014D000FEFF0000FFFF000010B5024C4460FFF764
:1014E00073FF10BD1D080010014BC3657047C04657
:1014F000050C0010F0B54E46DE4657464546E0B5B1
:10150000836D06000C0085B08B424CD0742305001F
:1015100081650A787435C2544B780D276B708B78CF
:101520002000AB70CB78EB700B792B714B796B7122
:101530008B79AB71CB79EB710B7A2B724B7A6B7227
:101540008B7A02930A23CB56AB729946CB7AEB7215
:101550000B7B03930C23CB562B739A460E23CF574A
:101560006F73CB56AB7398460F23CB56EB739B46EA
:101570001023CB5611212B740193FFF73BFB132152
:1015800068822000FFF736FB1521A8822000FFF7B4
:1015900031FB8F238E224146E882B754F154023B3F
:1015A000F35C002B06D105B0F0BCBB46B246A946A1
:1015B000A046F0BD012B0ED04B4653449F4204DAA7
:1015C0000399029B8C466344B354C245EBDA8F23E4
:1015D0005246F254E7E73B1C5F4507DB8E22B354CB
:1015E000019A9045DFDD8F23F254DCE75B46F5E797
:1015F00010B5024B4360FFF7D7FD10BD1D0800106A
:1016000010B500234469A04710BDC04630B583B073
:10161000C58F06AC2478521B009492B2C46AA047CE
:1016200003B030BD70B582B006AC25788C24045D63
:10163000002C51D0002B4FD0012B03D0022D24D0F1
:10164000032D55D0ED0723D54824045B8C4243D8A5
:101650004A24045B8C423FD94C244E259B189BB2F4
:10166000045B455B93423ED3954235D99C4233D2CD
:10167000261C944200D2161CB2B22C1C9D4200D9EA
:101680001C1CA31A01259BB222E00131C91A89B2A0
:101690004C24045B94421FD84E24045B94421BD913
:1016A00048244A255B189BB2045B455B8B4215D3EB
:1016B0008D4211D99C420FD2261C8C4200D20E1CA6
:1016C000B1B22C1C9D4200D91C1C0025631A9BB290
:1016D000046B0095A468A04702B070BD8D420BD981
:1016E0006B1E9BB2E6E7954208D96B1E9BB2BDE725
:1016F0000132D21A92B2A7E72100D9E72200B3E75C
:10170000F0B5C646382300B5C75C0133C45C036836
:1017100006005A7C0025904682B002E0A04513D90D
:1017200033682A001B7C716B5A43D20092B28A182C
:1017300000920021220030000135FFF779F90134D1
:10174000EBB2E4B29F42E9D802B080BCB846F0BD2B
:10175000382210B50368825C1B7C00215A43406B21
:10176000D20002F02BF810BD10B50400FFF7C8FF3F
:101770002000FFF78DF910BDF0B54E464546DE4618
:1017800057461C009223E0B5C35C85B09B460B19FD
:101790009BB29846130001339BB200934346060068
:1017A0000D0091460E9F00F049F900282ED0002C24
:1017B00029D05A4653425341DBB20393912301246B
:1017C0009A460DE05346F35C002B18D064000135B7
:1017D000E4B2ADB2002C01D101370134A84512D0DA
:1017E0003B782342EED092235A46F25400230093D2
:1017F0004A46290030000133FFF714FFE6E7922242
:101800000399B154F3E792235A46F25405B0F0BC61
:10181000BB46B246A946A046F0BDC046F0B54F460D
:101820004646D646C0B582B01F000AAB1B881400DE
:101830009A46D3189BB2984642467B1800929BB2B8
:10184000220081460E000B9D00F0F8F8002812D00F
:101850005346002B0FD0FB1D9BB2DB089A4622009B
:10186000013400953B0031004846A4B2FFF784FFE5
:101870005544A045F3D102B0E0BCBA46B146A846F3
:10188000F0BDC0460823037000487047D40900200B
:10189000F0B54E464546DE465746E0B507260124DC
:1018A000894609A9097816408C469221B440415CCA
:1018B0000025E4B2012905D801394F1EB94149423A
:1018C00025000C4007218A431100426B6746904671
:1018D0000268127C4A4392B24A44110042465218AE
:1018E000002F25D0922107278C461178013B2943F0
:1018F00061401170711C3E009BB20E400F4212D12C
:10190000418F52186146415C012908D90124002BFE
:10191000EBD1F0BCBB46B246A946A046F0BD0125BE
:101920000129F4D0F2E76D006400EDB2E4B2EEE715
:10193000504286B2B246032630405E1EB6B2B4466E
:10194000C61C042E6BD9B6B2664542D8002872D0A8
:1019500016782E43664016705646B70769D55678F6
:101960002E436640567003285ED196782E4366401B
:101970009670DE1EB6B2B44603321B1A9BB299466D
:10198000043B9BB29B0801332E029B462E432B0443
:101990002F061E433E43B2462602270426433E43FB
:1019A0003602360A2706374300264018404453467D
:1019B000016801361943794002C0B1B25945F6D3E6
:1019C0005B469B0099B263465B1A9BB252188945ED
:1019D0009FD01178294361401170012B99D0517823
:1019E000294361405170022B93D091782943614083
:1019F0009170032B00D18CE7D17829436140D170DD
:101A0000042B00D185E71179294361401171052B21
:101A100000D17EE753791D436C40547179E7052668
:101A2000B6B2664592D9D4E79E1EB6B2B44602322B
:101A3000A3E70132A1E79C469FE7C046F0B54E26DA
:101A40004C25865B05AC0F002488455B964211D976
:101A5000A54203D3A24201D80020F0BD4A2148226A
:101A6000415A825AB9420AD99A420ED3BB429B418B
:101A70005842F2E7A542EFD2A242EFD8ECE79A42F1
:101A8000EAD2BB429B415842E7E70120E5E7C04666
:101A9000F0B5C64605000F0014001E0000B50E2963
:101AA00041D010D80B294CD00D2950D1002A58D143
:101AB0003549FFF71DF82B689A7C2223EA54012050
:101AC00080BCB846F0BD0F2953D1FFF701F82222A0
:101AD0007379AA5CDB009B18DBB298464021280092
:101AE000FEF7DEFF43461909102328001943FEF7CD
:101AF000D7FF414628003940FEF7DAFFB023B1791D
:101B000028001943FEF7D4FF3179013CC9002800B1
:101B10003268C9B2E4B2FEF7D3FF002CF4D128003A
:101B2000FEF7DEFFCBE7FEF7D3FF81212800FEF7AB
:101B3000B7FF21002800FEF7BBFF2800FEF7D0FF0B
:101B4000BDE7002A09D11149FEF7D2FFB7E70929FD
:101B500011D10F49FEF736FFB1E70E49FEF7C8FF76
:101B6000ADE70D49FEF7C4FF2B68DA7C2223EA5467
:101B7000A5E70020A4E70A29FBD1FEF729FF2800EA
:101B80000649FEF7B5FF9AE7B0450010C0450010C2
:101B900090450010B8450010A8450010C845001039
:101BA000094A10B594464024830063441A68C00073
:101BB0006240803414408022520113431C60034B66
:101BC0009C466044416010BD04C00140004001409B
:101BD000074B80009C4660440368C90092000A439A
:101BE0005A400C231A4080235B0103431A6070475C
:101BF00004C001400123D022834012069362936106
:101C0000094A40219446830063441A68C0004A4050
:101C1000803111408022520113431960034B9C46CE
:101C2000052360444360704704C001400040014008
:101C3000024B18688007C00F7047C04600C00640BE
:101C400070B5EFF3108C72B60D4D2B68002BFCD0E5
:101C5000BFF35F8F0724CB08C618C05C01230C407C
:101C6000A3401C000440034207D118433070BFF367
:101C70005F8F2C608CF3108870BD100001F00CFC9D
:101C80002C0100D0F8B54746CE46884680B5EFF324
:101C9000108C72B6214D2C68002CFCD0BFF35F8FE6
:101CA0009A422CD8D4080727055D0619012417404D
:101CB000BC402C421FD007210127894609E0D408E7
:101CC000055D06194C4639001440A1400C0029421C
:101CD00011D001329342F2D201204042BFF35F8F14
:101CE00000220E4B1A608CF3108800280FDBC0BC5A
:101CF000B946B046F8BD254310003570EEE7BFF396
:101D00005F8F00232B608CF31088012040424346F4
:101D1000002BECD0089801F0BFFBC0462C0100D08E
:101D20000021044B044ABFF35F8F02C39342FAD1F0
:101D30007047C046000100D0800100D0044A1078EE
:101D4000431CDBB2172B00D9102313707047C04619
:101D5000BC01002001238340002904D0034A136002
:101D6000034A13607047034A1360FBE780E200E018
:101D700000E100E080E100E0024B10309B68800051
:101D8000C058704700ED00E070B50D00EFF310860D
:101D900072B60F4A1368002BFCD0BFF35F8F0D4B58
:101DA00010309B6884001B590B4A934203D09D421C
:101DB00001D001F089FB074B9B681D51BFF35F8F7A
:101DC000BFF35F8F0022024B1A6086F3108870BD4C
:101DD000240100D000ED00E0CD010010F0B5DE469A
:101DE00057464E464546E0B50C0083B0EFF31088E9
:101DF00072B65D4A1368002BFCD0BFF35F8F5B4B5C
:101E00005B499A68030010339F00D5598D4239D041
:101E1000A5424AD0574EAA1B2F2A33D801229246F8
:101E2000824091464846544A126810400190484604
:101E3000524A1060BFF35F8FEFF305829346002A8A
:101E400035D0934201D001F03FFB2A0053469A431C
:101E50009068844208D175E04B005B189B00F31832
:101E60009868A04234D01A00062151560029F3DAAE
:101E7000844253D0019B002B26D04A46404B1A6027
:101E80003D4B1A60394B9B68DD51BFF35F8FBFF349
:101E90005F8F0022344B1A6088F3108803B0F0BCC7
:101EA000BB46B246A946A046F0BD0D00EAE72A00AF
:101EB00053469A4390688442D6D1062010561300A8
:101EC000002809DA0D0031E04A462C4B1A60D9E7A8
:101ED00006201856002822DB4200111889007418C9
:101EE0008A46A1689960E179D97106216156997194
:101EF000002925DBA488F11A640524155444091926
:101F0000E0240905490D24022143998013181D4A34
:101F10009B001178F31899711070ABE713005946C4
:101F2000002914D1FF3191711749918015490A7820
:101F30009A71164A9B1B5B415A43120D0A7099E72E
:101F40001349E2E70620105613000028C4DA114AAC
:101F50001149D21A083A5002400D014399800F49A5
:101F600052080A43DA8085E7240100D000ED00E042
:101F7000CD010010C001002000E100E080E100E0A0
:101F800080E200E0180F002001BDFFFFAAAA0000B8
:101F900001BD0000FA01002000F0FFFF00F8FFFF84
:101FA00070B5EFF3058101240443EFF3108C72B692
:101FB000214A1368002BFCD0BFF35F8F1F4B050035
:101FC0001F4AED1A6D416A43120D1E4D8900AE681D
:101FD00052B27658A6421CD00621595691421CD0C6
:101FE00012215956914222D01E215956914220D099
:101FF0002A2159560324914210D0134B19781A7094
:102000008171BFF35F8F00220B4B1A608CF3108835
:1020100070BDAB680D4C5C50EFE7002461000919FE
:1020200089005B18FF21997109499980E5E701242E
:10203000F4E70224F2E7C046240100D0C0010020EA
:10204000AAAA000000ED00E0180F0020CD0100104A
:1020500001BDFFFF054B064A1360064A136053603B
:102060009360D36013615361936170478080808077
:1020700000E400E004E400E0024B9C466144890077
:10208000016070474000003410B50400FFF756FEB1
:1020900001002000FFF7F0FFFF232371BFF35F8FE4
:1020A00010BDC04610B50400FFF748FE0100200037
:1020B000FFF7E2FFFF23A380BFF35F8F10BDC04691
:1020C00083680B4810B584466144624412010901DB
:1020D00059189B185C684A680120944201D802D0C4
:1020E0000020C0B210BD1A680B689A42F9D8F7E711
:1020F000FFFFFF0F0A4B1968EFF3108072B60A68F2
:10210000002AFCD0BFF35F8F1B68BFF35F8F0022F4
:102110001A6080F3108840BF002000217047C0463D
:10212000400E0020F8B5574645464E46DE46E0B51F
:1021300098460CAB1C780DAB1B78070091469A466D
:102140000568002C59D1AC7B002C3BD06600296877
:102150003619033E89194B78AB73002B00D1EB7312
:1021600000238B704B700B702D4BE218BB68120173
:102170009B184A461A6042465A600A9A9A600B9A1D
:10218000DA6000238B704B700B706B7B9B46002BCF
:1021900026D022006B685946A86898475B465B00CA
:1021A0005B442A68033B002812D058469619B07049
:1021B000D118D35C002B00D073705B460C706B732E
:1021C0005C450ED0F0BCBB46B246A946A046F8BD61
:1021D000D3189C709119925D002A1CD15B460B703C
:1021E0006C734A464346387D00F0E6FB051E0AD173
:1021F0000E9B002BE6D01D70E4E7660029683619B7
:10220000033E8919B0E75346002BF1D1210038680D
:1022100000F0EAFDECE75A705B460B706C73E0E788
:10222000FFFFFF0FF0B5DE4657464E4645460023FA
:10223000E0B58BB00893684B8200D45800239B46CE
:10224000099000F025FB02000B006068EFF3108A94
:1022500072B6564601680029FCD0B246BFF35F8FC4
:1022600021684F7B8C46002F2ED0A5685B49A9467C
:1022700079180901894449460868496805000E0033
:10228000AD1A9E41002E5FDD02000B00099800F0A0
:1022900093FB002300229946002306920793002314
:1022A00098466368BFF35F8F5A461A608AF31088B6
:1022B0004346002B12D10028C3D10BB0F0BCBB4663
:1022C000B246A946A046F0BD00230022994600234D
:1022D00006920793002300209846E2E7089B4946B0
:1022E00018023843C047626805000E00EFF3108AF9
:1022F00072B61368002BFCD0BFF35F8F002E41DB5A
:102300002B00334302D02369002B56D12368D97B9D
:10231000002905D01A68480041185218033A57702E
:102320009A7B002A00D19F73DF73E268013FD35D7F
:102330000133D3555B4623616368BFF35F8F5A4611
:102340001A608AF310887CE7002E02D1002D00D09D
:102350009AE70021604600F0C5FC4B461A685B68AE
:10236000069207934B469B6898464B46DB68994616
:10237000E368DB19013B1B7808931B0203432361CD
:1023800000208EE72369002BC0D0069A079B80218E
:10239000521BB34109068B4202D30122104B524219
:1023A00000210491013103914946019141462000E9
:1023B00002970091FFF7B6FEBCE700F069FA2A0029
:1023C000330012184B41802109068B42E8D30122C9
:1023D000034B5242E4E7C0462C0E0020FFFFFF0FE4
:1023E000FFFFFF7F10B5144C6368002B04D00A2157
:1023F0001248FFF741FE10BD2300114A102120684A
:1024000000F08CFB032000F037FA032000F03CFBC7
:1024100003200C4900F08AFAFFF790FC0A4B9C4617
:1024200003232375D0231B061B6860446375074B89
:1024300080006060DC60DAE708020020400E0020C7
:10244000C120001025220010400000342C0E002076
:10245000F0B557464E464546DE46E0B585B0019399
:1024600010AB1B780600039300239A46984600920F
:102470007268EFF3108B72B61368002BFCD0BFF3B9
:102480005F8F3568AC7B002C00D16EE067002B6855
:102490003F19033FDB195A78AA73002A00D1EA7367
:1024A000484AA118B26809015218009801991060B1
:1024B00051600E9991600F99D16042469A705A709E
:1024C0001A706B7B9946002B00D16BE022006B6881
:1024D0004946A86898474B465B004B442A68033B33
:1024E000002856D04846D719B870D118D35C002BB5
:1024F00000D07B704B460C706B734C4553D0F36827
:102500001B19013B18787368BFF35F8F42461A604E
:102510008BF310885346002B08D10002204305B0EE
:10252000F0BCBB46B246A946A046F0BD039B002BBB
:1025300046D00E9B00200F99984703000B433FD0D5
:1025400004000D1E1ADA009A019B121BAB41009287
:10255000019380221206934204D301231A4C5B425A
:1025600000930194039B9A4682E77368BFF35F8FE1
:102570001C608BF3108801204042D0E700F088F9FE
:102580008022001969411206009001919142E9D31D
:10259000E3E7D3189C70D119D25D002A00D05A709D
:1025A0004B460B706C73307D009A019B00F004FA6F
:1025B00082460028A3D02100306800F015FC9EE779
:1025C0000020ACE7FFFFFF0FFFFFFF7FF0B5040027
:1025D0000D0006267642F717C64636196F4100B53C
:1025E00084B08F4214D811D000F052F932003B0071
:1025F000121A8B41002B15DC002B3ED02000290045
:1026000000F084F904B080BCB846F0BD8642EBD936
:102610000026002700F03CF932003B00121A8B41E3
:10262000002BE9DD002302930193154B3200009348
:1026300014483B00FFF70CFF0028DFDB002398461F
:10264000BC46114A114F7B6A9C4504D8B96A8E4238
:10265000D4D99C45D2D11168EFF3108072B60B68C3
:10266000002BFCD0BFF35F8F1368BFF35F8F414631
:10267000196080F3108820BFE5E7002ABED0D1E7BB
:10268000F520001008020020400E00200040054008
:1026900070B504000D0000F0FBF8802300196941BB
:1026A0001B06994202D3012002494042FFF78EFFE8
:1026B00070BDC046FFFFFF7F70B5060000F0E8F870
:1026C000FA2204000D00002330000021920001F0E6
:1026D0000BF88023001969411B06994202D301209F
:1026E00002494042FFF772FF70BDC046FFFFFF7F07
:1026F000F0B5EFF30583CE46474680B505000C00E4
:1027000085B0002B12D02A4A0020536AA34203D37B
:10271000926A0130AA4204D305B0C0BCB946B046A3
:10272000F0BD1B1B5A1E9341D8B2F5E7214E029310
:102730000193214B0200009330000B00FFF788FE4D
:10274000031EE0DD20BF7168EFF3108772B60A68E0
:10275000002AFCD0BFF35F8FDAB29446FF223068C4
:102760001A40417B61450FD0016889465100884677
:1027700049469044414403398978002904D132699B
:10278000934209D1316107E0F1681B0A8A18013AC6
:102790001278DBB29A4207D07368BFF35F8F0022D2
:1027A0001A6087F31088AEE7614600F01DFBF3E77F
:1027B0000040054008020020F5200010F0B5EFF3BE
:1027C0000582D6464F4646461000C0B51038EFF396
:1027D000108872B6214C2368002BFCD0BFF35F8FAA
:1027E0000123190081401E4D1F006963AA461D4D3B
:1027F00029601D4D2E78AC463500C5402F402B4238
:1028000015D053465F6A194B8500EB589F4218D389
:102810006246174B8E43EB581670BFF35F8F002252
:10282000226088F31088002B06D0984704E0BFF39D
:102830005F8F276088F31088E0BCBA46B146A8468F
:10284000F0BD0C4B92009C46624413681360BFF3CA
:102850005F8F0023236088F31088EDE7280100D004
:10286000004005403C700540190F0020680E002014
:10287000C4090020D03F054010B5034B01001800EB
:10288000024AFFF7DDF910BD160F00204840001086
:10289000034B596A0A00986A596A8A42FAD170470A
:1028A0000040054070B504000D00174A536A190036
:1028B000966A536A8B42FAD13000190024184D41B0
:1028C000AB4216D813D0104B2A005B6A9D4203D945
:1028D0000D494B6A9342FCD3934207D10A4A02E066
:1028E000516A994202D1916AA142F9D370BDA642C0
:1028F000E9D9054B5B6A1C005A1CEFD00122012468
:102900006442E5175242E3E700400540064A536A35
:102910009942FCD807D1044B02E05A6A914202D195
:102920009A6A8242F9D370470040054070B50400AE
:102930000D00EFF3108672B61A4A1368002BFCD014
:10294000BFF35F8F002D1BD02000FFF715FA16494B
:1029500081420AD02000FFF717FA01212000FFF77B
:10296000F9F90123A340114A1360114BA400E5506B
:10297000BFF35F8F00220B4B1A6086F3108870BD87
:102980000121A1400A4BA200D5500A4B20001A7821
:102990008A4305491A70FFF721FA00212000FFF74A
:1029A000D9F9E5E7280100D0BD27001038600540BF
:1029B000C4090020190F0020F0B54F46D646464600
:1029C000C0B507002B4C616A0D00A66A616AA94276
:1029D000FAD18B4208D805D00120E0BCBA46B146F6
:1029E000A846F0BDB242F7D9EFF3108A72B622487A
:1029F00001680029FCD0BFF35F8F0125BD401F494E
:102A00001C4C8846097889462943C9B28C46414600
:102A100060460870391D890065630A511849B8007D
:102A20004350216A0020294219D0616A0800A66A31
:102A3000616A8142FAD18B4219D801D1B24216D8CB
:102A4000CC450BD00B4B1F221D625D6301233A4026
:102A500093400C4A136043464A461A700120BFF364
:102A60005F8F0022044B1A608AF31088B5E70020BC
:102A7000F5E7C04600400540280100D0190F0020AE
:102A8000680E002080E200E0EFF3108C72B60A4975
:102A90000B68002BFCD0BFF35F8F01238340074AF4
:102AA0000748136202789A430270BFF35F8F0023D6
:102AB0000B608CF310887047280100D0004005405F
:102AC000190F002070B506000D00140000291DD05C
:102AD000002A12D073688068984762006B00121950
:102AE0005B193168033A033B002808D08A189570B7
:102AF000C818CB5C002B0BD10470280070BDCB181C
:102B00009C7088188A5C002A05D105702000F5E7C2
:102B100053700470F1E75A700570F7E710B58360E1
:102B20000023CCB243730133426004738373C473D4
:102B30000068421C012C05D90133DBB2137003324B
:102B40009C42F9D1FF230B405A00D318C018002330
:102B50000338437010BDC04670B505000C1E07D089
:102B6000630001681B19033BCB185A78002A01D176
:102B7000200070BD500080180338091800204E78DE
:102B80004870210058702800FFF79CFF31000400B6
:102B90002800FFF7E1FF0600002C20D00028E7D036
:102BA000320021006B68A868984772006300921990
:102BB0001B192968033A033B002808D08A1894702F
:102BC000C818CB5C002B00D053700670D0E7CB1830
:102BD0009E7088188A5C002A00D05A7004703400F5
:102BE000C6E7C046F0B557464546DE464E46E0B518
:102BF0000D006F0001687F19033F0400C85D83B0BA
:102C00000192CA19002850D043001B18033BCB186F
:102C10005E78B446002E1AD1019E002E42D0E67B8B
:102C2000002E04D073009B19CB18033B5D70A37B6F
:102C3000002B00D1A573E57300282FD1002353701A
:102C400003B0F0BCBB46B246A946A046F0BD720038
:102C50006244033A8A1851788846002151708946A7
:102C60005970320001002000FFF72CFF43468246D6
:102C7000002B07D05B0021684344033BCB185A78F4
:102C8000002A16D1424651462000FFF71BFF21685B
:102C9000019BCA19002BC2D10028CFD043001B18BA
:102CA000033BCB1800219970C8E7019B002BB6D1DC
:102CB000C4E750008018033809184878834648460E
:102CC0004870587041462000FFF7FCFE5946804688
:102CD0002000FFF741FF414602002000FFF7F2FE0F
:102CE0008046CFE7F0B557464546DE464E46E0B54E
:102CF00083B00191457B04006F0000687F19033F9A
:102D0000C15DC219002952D04B005B18033BC318A8
:102D10005E78B446002E1CD1019E002E44D0E67B86
:102D2000002E04D073009B19C318033B5D70A37B76
:102D3000002B00D1A573E573002931D100232800B1
:102D40005370617303B0F0BCBB46B246A946A046BF
:102D5000F0BD72006244033A821850788046002029
:102D600050708146587032002000FFF7ABFE43469A
:102D70008246002B07D05B0021684344033BCB18FD
:102D80005A78002A17D1424651462000FFF79AFE92
:102D9000019B01002068C219002BC0D10029CDD0B1
:102DA0004B005B18033BC31800209870C6E7019BDB
:102DB000002BB4D1C2E750008018033809184878B6
:102DC000834648464870587041462000FFF77AFE17
:102DD000594680462000FFF7BFFE41460200200012
:102DE000FFF770FE8046CEE770B5050000292CD0B5
:102DF000437B8B422ED04C0000686418033C0419BE
:102E0000A278002A21D053009B18033BC25CC6184D
:102E10008A4202D11BE0002A08D053009B18033BD2
:102E2000C3185A788A42F6D162785A700023012278
:102E30002800A3706370FFF7D5FE697B02002800AD
:102E4000FFF740FE6873012000E0002070BD63784A
:102E50003370EBE701221900FFF7C4FEF2E7C0462A
:102E6000F8B5CE464746040080B506200D0000F0B8
:102E700021FA061E53D0534B5349E3185A1E93416F
:102E80008022120494465B429B0D504A9B0563448A
:102E900013604F4A136018008A689043FBD1494B76
:102EA0004C4AE31859424B4180215B0049000620FF
:102EB000995200F0FFF92900C00000F08DFBC30912
:102EC00032D14022012190466162A362266BF30752
:102ED00036D427008025E36A00232C376D013D435B
:102EE0002B600620266300F0E5F94146800000F0E3
:102EF00073FB236B06009846DB073BD46023E26A32
:102F00005A400E3313402B60434623638023102224
:102F10009B013B431A60304B23630323A3643000BF
:102F2000C0BCB946B046F8BD2C4A93423FD90023F5
:102F30002B492C4A6162A362266B9046F307C8D5E1
:102F40002200C02330329B011343234A06201A601B
:102F5000656AA36AAD01ED1800F0ACF9224900F0F2
:102F60003BFBAD020100280000F036FB0021FFF71B
:102F700099FCAEE72200C02330329B011343164A6E
:102F800006201A60636AA26A9B019946914400F088
:102F900091F94B4614499B02994600F01DFB010034
:102FA000484600F019FB0021FFF77CFCA6E77F22D2
:102FB00099018846024001325208190090441300DA
:102FC00082E7C0460080FCBF00C0004000E0004037
:102FD00000F000400C0F002001030000FEFF000085
:102FE000FFFF0000C0FF3F004E0E000010B50C2098
:102FF00082B000F0B7F9FEF71BFE002810D08B4B13
:103000008B488B498B4A186059609860D960186169
:1030100059619861D961186259625A6202B010BD53
:10302000854CA06700F0A6F90122844B1A60636CFE
:10303000012BFCD10322824B1A607F4A936B012B38
:10304000FCD1013301217F4A7F480093043300F013
:1030500037F905237D4A009301217D4800F030F9BE
:103060007C4B5A68FF2A02D8802252005A60802284
:10307000734B6E4C12011A602169002907D06069F8
:1030800000F0AAFA013043001B18033BFDD2E022F6
:10309000704B714819680A40026002221968514059
:1030A00001320A40042102609A681142FCD080215A
:1030B0006A4A09011160802252005A60684B2361FC
:1030C000684B5968FF2900D85A60032201215B4BE5
:1030D0001A60644A93681942FCD0E02310680340E8
:1030E00061480360126803234A40022113405D4A8D
:1030F000036093681942FCD080215C4B0901196080
:1031000080215B4B4900516063615A4B5A68FF2A2A
:1031100000D859608022584B12011A60E1690029D9
:1031200007D0606900F058FA013043001B18033BD8
:10313000FDD2E0234F4A11680B4050490B608021BB
:103140004F4B090119608021394B49005160E361FF
:103150004C4B5A68FF2A00D8596080224A4B120112
:103160001A60216A002907D0606900F035FA013041
:1031700043001B18033BFDD2E023424A11680B4079
:1031800042490B608021424B0901196080235B009A
:1031900053608022264BD20223623E4B59689142F3
:1031A00000D25A6080223C4B12011A60616A0029E9
:1031B00007D0606900F010FA013043001B18033B90
:1031C000FDD2E023334A11680B4034490B60802163
:1031D000334B090119608023DB025360154B636296
:1031E000304B5A68FF2A02D8802252005A6080224F
:1031F0002D4B12011A60A169002907D0606900F007
:10320000EBF9013043001B18033BFDD2E023254AB4
:1032100011680B4025490B608021254B090119607D
:1032200080235B005360124BA361F7E6B0030020DC
:10323000006CDC021BB70000008000403CB0004086
:1032400030B00040002F685900800240008C864753
:1032500000C00240308000403090004030A000406C
:10326000001BB7003C8000403C9000403CA0004068
:10327000405973075480004054B0004054900040BF
:1032800054A000406080004060B00040609000406A
:1032900060A000406C8000406CB000406C9000402A
:1032A0006CA000404880004048B00040489000407A
:1032B00048A00040014B8000C0587047B003002078
:1032C000F8B5040022481E0017000D0000F084F934
:1032D0000100380000F080F9069B36041B031E43F2
:1032E0002368002B22DB1B4B1B49E3185A1E93411A
:1032F0008022920194465B421B0B184A1B036344D5
:103300001360174A13601F008A689743FBD1C022DD
:10331000231D92011A4321232560A06013602368B6
:10332000002BFCDA0823E6601360F8BD3F23226817
:103330001340AB42D7D1A3681B051B0D8342D2D1EA
:10334000EE22E368D2021340B342CCD1EDE7C0468F
:10335000001BB7000040FDBF00C0004000E000407F
:1033600000F000408023024A9B000343D362704771
:1033700000800540AA23064A1B0113602F2305493C
:10338000D360054B19605368002BFCDA7047C046C8
:103390000040024000B0FA00006002402C4B2D4A71
:1033A00070B51A602C4A2D4B2D491A6014008B6899
:1033B0009C43FBD12B4D2C4EB54208D2013E761BCF
:1033C000B60808CD984723000134B342F9D1FFF77E
:1033D0000DFE264A214B1A60214A9368DB43DB012C
:1033E000DD09002BF9D14022214B224C224E9A6755
:1033F0005A671A67DA66B44208D223682000002BA5
:1034000020D00834FEF74EFEB442F6D31B4C1C4EBF
:10341000C022B168200000F0D7F9B460FEF780FC4C
:10342000FEF718FEFEF7DEFF164C174EB44208D228
:10343000013E361BB60808CC98472B0001359E424A
:10344000F9D170BD0834FEF71FFEB442D5D3DDE7D5
:1034500000E00040BFCDFBFEFE7F3C0000F00040DE
:1034600000C0004098030020A8030020FFFFFF01D8
:1034700000F001409003002098030020000000208D
:1034800000ED00E0A8030020B003002000BEFDE72F
:1034900010B5FFF7FBFFC0460FB400B5084883B076
:1034A00000F02EFA049B002B07D005A9180001910B
:1034B00000F018F8034800F023FA0120FFF7E6FFB8
:1034C0006C4000107C40001010B50148FFF7E4FF8D
:1034D0008040001010B5002800D110BD00F0C4F9E4
:1034E000FBE7C04610B5094A0300146884B0002CFD
:1034F00008D0012200910648524203A9A0470120AA
:1035000004B010BD00F0FCF90020F9E7280E0020FF
:10351000D534001001480421014B18473002002027
:1035200045350010142310B50100188804331B889A
:10353000984710BD162310B50100188802331B8868
:10354000984710BDF8B54746CE4680B50F1E19D036
:1035500014239946043304000025012698464B465F
:103560001888434621681B88984701C4431E984128
:10357000013540420640AF42F1D13000C0BCB946EF
:10358000B046F8BD0126F8E7124A936F9B0815D2A2
:103590009066D166002905D0FFE7FFE7FFE7516F8E
:1035A000106F704704B580210906C21751400028EA
:1035B00000D0C84300F0BCFC002104BDF0B5146E7F
:1035C000556E576F166FFFF7E3FF14665566576722
:1035D0001667F0BD000000D0114A936F9B0813D20C
:1035E00010665166002905D0FFE7FFE7FFE7516F3E
:1035F000106F704704B5002801D00020C04300F0D0
:1036000097FC002104BDC046F0B5146E556E576F8F
:10361000166FFFF7E5FF1466556657671667F0BD2E
:10362000000000D0132370B51D78012D15D010DDDA
:103630001D48FFF77FFF1D4C01008022200000F095
:10364000C3F8022D2DD01A48FFF76CFF194B1860F4
:1036500070BD194B154CA364F5E7174B134C236051
:103660006360A360E36023616361A361E36123623C
:103670006362A362E36223636363A363E36323641C
:103680006364A364E36423656365A365E3652366FC
:103690006366A366E36623676367A367E367A36460
:1036A000D1E7054BA364CEE753440000D8040020C3
:1036B0004C3300003C0E0020BD36001007B56046BC
:1036C00001880A0A0230DF2AFAD1C9B2820804D37B
:1036D000028840880004104300E00068014A50500E
:1036E000039007BDD804002051434343C9188C46BA
:1036F000110C83B24B4310B4040C614392B280B2FC
:10370000504362431C041B0C001910BC59411304A4
:10371000120CC0185141614470470000132310B5CA
:1037200012481C78FFF706FF0100012C0AD003DDC8
:1037300080220F4800F048F80E48FFF7F3FE0E4BCA
:10374000186010BD0A4C5422200000F03DF80B4BCD
:103750006365A365E36523666366A366E366236723
:103760006367A367E3672362E361E5E7534600000D
:10377000D80500204C3300003C0E0020813700109B
:1037800007B5604601880A0A0230DF2AFAD1C9B2B9
:10379000820804D3028840880004104300E00068D7
:1037A000014A5050039007BDD8050020014804216C
:1037B000014B18474002002045350010014B1B68A3
:1037C0001847000040020020014B5B6818470000CA
:1037D00040020020F0B5C64600B5437D07000D004D
:1037E0001600002B38D0002A2EDD00216A1E9046DC
:1037F0006A5C037D4C1C00200A2A0CD0A64216D01D
:1038000043461B5D21000D3B5A4253416A5CDBB2CB
:103810004C1C0A2AF2D1002BF0D1884217DB02217E
:1038200010483B689847A64207D02000E8E7864248
:1038300003DD311A3B6828189847AD19013D2B78F4
:103840000D3B5A4253413B7580BCB846F0BD091A46
:103850003B6828189847E2E703681100280098475A
:10386000F2E7C04624460010F0B5CE46474680B584
:1038700083B06B460600DD1D2870FFF709F80023B2
:103880001A4A12184B41802109068B4202D30122A9
:10389000174B524217490800884600F051FB164B5F
:1038A00081461C68002C14D0144F02E02469002CBF
:1038B0000FD02368002BF9D03B68002B01D0A34226
:1038C000F4D1200001222900FFF784FF2469002C95
:1038D000EFD14B46002B05D1300003B0C0BCB94638
:1038E000B046F0BD404600F01BFBF5E740420F003C
:1038F000FFFFFF7F90030020200E0020240E0020F9
:10390000F0B5DE4657464E464546E0B585B0070061
:1039100000F078FA0600FEF7BBFF00232B4A1218CE
:103920004B41802109068B4202D30122284B52428F
:10393000284908008B4600F003FB274B01901C68C8
:103940009A46002C3BD0254B984602ABDD1D0A233E
:10395000994602E02469002C17D02368002BF9D087
:1039600043461B68002B01D09C42F3D1200032005B
:103970003900FFF72FFF4B462000012229002B7052
:10398000FFF728FF2469002CE7D1019B002B18D1F9
:1039900053461C68002C06D06368002B0BD0984758
:1039A0002469002CF8D1300005B0F0BCBB46B2460B
:1039B000A946A046F0BD2469002CEDD1F3E700280C
:1039C000F1D0584600F0ACFAE2E7C04640420F00A2
:1039D000FFFFFF7F90030020200E0020240E002018
:1039E0000A4A1368002B05D10CE01A001B6910323B
:1039F000002B07D09842F8D1002902D10369136047
:103A0000016170470029FCD01060FAE7200E002009
:103A100010B500F0CBF8012010BDC046F0B500296C
:103A200015DD0E4B0D271A680D4B0E4CD3185D4259
:103A30006B41451820215B001E5F0478A64207D029
:103A400093691942FCD101301460A842F5D1F0BD50
:103A500093691942FCD11760F2E7C046100F0020AD
:103A60000080FCBF0C0F0020214B70B504000D1E20
:103A70001E682CDD002010211E4B013C1A68936942
:103A8000194215D1013093691942FCD113682354AE
:103A90008542F4D1002E09D0502338219363536B13
:103AA0003432194080235B011343196028000DE074
:103AB000002E09D0502338219363536B34321940C0
:103AC00080235B011A43116000280ED070BD002EC8
:103AD0000BD050223821074B1B689A635A6B343342
:103AE0001140802252011343196003204042EDE748
:103AF000D40D0020100F0020064B10B51B68002BC2
:103B000006D00021044A12689163044A106898475D
:103B100010BDC046D40D0020100F0020D80D00208D
:103B20001D4BF0B51A68C64698461C4B0E00D318BC
:103B300059424B411A4F14331C00050000B53B6835
:103B4000002807D0002B11D0164B3D601E6080BCB2
:103B5000B846F0BD002BF7D0906300212000FEF79F
:103B6000F9F820001049FEF739F9EDE720000E4979
:103B7000FEF70AF901212000FEF7ECF84346502237
:103B800038211B689A635A6B3433114080225201EA
:103B900013431960D8E7C046100F00200080FCBF17
:103BA000D40D0020D80D0020F93A00100C4B10B5B0
:103BB0001B780C4B0C4C1B780C4B02210020236013
:103BC000FDF7EEFF02210120FDF7EAFFE121206869
:103BD0004902FFF745F901210548FFF701FF10BD34
:103BE0005C46001058460010100F002000400340B3
:103BF00050020020F0B54E4681464D4A45464A44A3
:103C0000531E9A418023DE4657465B029C46E0B530
:103C1000484B120462441A60474B0D00474983B079
:103C20001A6010008B689843FBD10620FFF742FB17
:103C30004B465A6802231A40019204224A44934692
:103C4000C0225946920111430B608A46802180466A
:103C500049008C4641460220A846EF0D6E02AB0D8E
:103C6000AA02009104E0009CA5425ED8604553D0B2
:103C7000010015001C00023092197B41002CF2D08B
:103C8000009B454698465B468024AB460D000E02DD
:103C9000761A640000932700013C002C40D03100CC
:103CA0004046FFF799FC761B8345F4D2009B290020
:103CB0009B466F4324024B4619611B684A465C4091
:103CC000FF231B021C4080235B01134380225946C3
:103CD0000198920111431C600860484655464468AB
:103CE000022028604D462E6807256E40C8353540B5
:103CF0001D604B4624331A43032304400C601360B9
:103D0000086039004046FFF767FC03B0F0BCBB46D3
:103D1000B246A946A046F0BD45460100A046B2E71E
:103D2000009B29009B462F00C5E74546A046AAE711
:103D30000040FCBF00E0004000F0004000C0004038
:103D400010B5064B064C82B00100009300220B23F5
:103D50002000FDF797FF02B010BDC046FC400010E8
:103D6000140F00200022034B1B68983318605A6020
:103D70007047C04668020020094B10B51C68094A0C
:103D8000983420686168084BFFF7AEFC01220023DD
:103D900080185941206061604800400810BDC0464D
:103DA000680200202D7F954C2DF451580022034BC2
:103DB0001B68983318605A607047C046680200203C
:103DC000094B10B51C68094A983420686168084B93
:103DD000FFF78AFC012200238018594120606160AE
:103DE0004800400810BDC046680200202D7F954C59
:103DF0002DF4515810B5010000230022002000F0DE
:103E000043F810BD10B583070AD00300032102E078
:103E100001330B4205D01A78002AF9D1181A10BDC7
:103E2000030019680C4A0D4C8A188A4322420FD1AC
:103E30005968094A04338A188A43224208D15968CA
:103E4000054A04338A188A432242F1D000E0013344
:103E50001A78002AFBD1E1E7FFFEFEFE8080808019
:103E600070B5074C074D641BA41005D0013CA3009E
:103E7000EB589847002CF9D100F04EF870BDC046C1
:103E8000B0030020B0030020F0B5C6461A4C00B5C0
:103E90002568002D2AD06C681F2C2ADC002808D148
:103EA0000020631C0234A4006B60615180BCB846E2
:103EB000F0BD8827A600AE19F2510137FF37BC4686
:103EC0000122AC446746A2403F68904617436246D1
:103ED000176084277F00F3510228E1D12800424671
:103EE0008D30FF30036813430360D9E7034D25602D
:103EF000D1E701204042D9E7C00900203008002066
:103F0000034B10B5002B02D00248FFF773FF10BD22
:103F100000000000613E0010F8B5C046000000003F
:103F200001B40248844601BC604700BF5D01002027
:103F300001B40248844601BC604700BF85010020EF
:103F400001B40248844601BC604700BFC1000020A4
:103F500078030010EE030010F603001004040010B4
:103F6000100400106C0300107003001070030010A8
:103F70007003001070030010700300107003001035
:103F80007003001070030010700300107003001025
:103F90007003001070030010700300107003001015
:103FA0007003001070030010700300107003001005
:103FB0006C0300106C0300106C0300106C03001005
:103FC0006C0300106C0300106C0300106C030010F5
:103FD0006C0300101A040010280400106C03001079
:103FE0006C0300106C0300106C0300106C030010D5
:103FF00066030010660300106603001066030010DD
:10400000820400107004001070040010B00400104E
:10401000920400107404001070040010700400106A
:104020007004001070040010700400107004001080
:10403000E4040010436F6E67726174756C6174699B
:104040006F6E7321000000004861726477617265D1
:1040500020616C61726D20256420616C7265616401
:104060007920636C61696D65640000000A2A2A2A60
:104070002050414E4943202A2A2A0A000A00000003
:1040800048617264206173736572740052656C6577
:1040900061736500626F6F74325F773235713038EB
:1040A00030000000312E352E310000007069636F42
:1040B000000000007270323034305F73736431334B
:1040C000303600004A756E203133203230323400F1
:1040D0005541525420737464696E00005541525426
:1040E000207374646F757400554152542073746466
:1040F000696E202F207374646F7574004E6F2044B6
:104100004D41206368616E6E656C7320617265203D
:10411000617661696C61626C65000000100000826C
:1041200000001000101000C6001010000010106CED
:10413000101000008200103810008200824400102D
:104140000044820082442800284482000044281051
:104150002844000000002810280000000000001083
:10416000000000004D0800108D08001039080010F4
:104170005F0003020304030504050D00FE09FE0AA7
:10418000FF015F02C404032005006E0721074943B5
:10419000C7210922079B5A476209230E3D464F2932
:1041A0004906A53228A52401240F4D42573628512F
:1041B000926D49940C5A04250D4D424FA474CC8A3B
:1041C000498B9400260E45424F9644495689A229B0
:1041D00052022706195BC700280BDB3E57122551F8
:1041E000B7280B290CDB3E47166551972889002A12
:1041F0000A2D5257A5B23445002B0A2D4A57180DE7
:104200005218012C079B3E8F52022D060D52C720DB
:104210002E089B3E4FB224002F0B4D42672DCC8AB7
:10422000591802300B4D425796D4BC25B508310BB6
:104230004D42572625614F8300320B4D42CF926984
:1042400061D67110330C4D42C72066B535D4920546
:10425000340F4D425F984949949492410B130035B5
:104260000C4D42C7B1620A432D5900360D4D42CF65
:104270009289E19064B66401370C4D42C7206661B3
:104280001666610D380D4D42CF92D99225B3250B9C
:1042900000390D4D42CF92D992210CB564013A0BF1
:1042A000C33E4FB2E448B224003B0AC33E4FB2E4DF
:1042B0008852023C084D4267D6B5033D09254AC7DE
:1042C000A06383003E094D4247DAAD23003F0C4D09
:1042D00042CF92696156CCA108400D4D42CF9299D0
:1042E0009644492CE910410C4D425796D46CC3902A
:1042F000D90242104D42C71055A2244AA64A9444FE
:104300008302430B4D42CF9289BD250B0044124DD1
:1043100042C71055A2244AA2244AA2241A140045D6
:104320000B4D42C7B13824617110460B4D42C7B1E5
:104330003824612300470C4D42CF92894D9B962C27
:1043400000480B4D4247E6360C995B004908CB42CA
:10435000C712F5654A0B4D42D716F6124512004BAF
:104360000D4D4247664A4A5A1255322D4C094D426C
:1043700047D88F83004D0D4D4247A62D4BA2249A5E
:104380005B004E0D4D4247364D4AA224D24D0B4F95
:104390000A4D42CF92F92D5900500C4D42C79064FE
:1043A000B641091B01510A553ECF92F9A5B20652FA
:1043B0000D4D42C79064B6412955322D530C4D42E4
:1043C000CF9289E91A6AC90254094D42C72085FD76
:1043D0000455094D4247E66FC902560D4D4247E666
:1043E00096949228C9C208570D4D4247E6255112AE
:1043F0002551BA00580E4D4247A625A524AB444985
:104400004D0B590C4D4247A625A5240B3B015A0CD8
:104410004D42C720666156CCC2415B09DB3EC710E6
:10442000F5A7015C0B4D4247988669310D035D0984
:10443000DB3EC7D49F86005E081D5A5796D4025FA4
:10444000060D3EC720600612634714610B3542CF4C
:104450009A0C9AA42801620C4D4247581C92CC6DCC
:104460005000630A3542CF9289B56401640B4D4216
:1044700067CBA0B9254300650C3542CF920D439818
:10448000250B00660C4D42975409B3210ADB0067E7
:104490000C453ACF92D99221D49205680A4D4247F1
:1044A000D862D2DC026908C3424F2875196A0B54DE
:1044B0003A5FACB54952A2006B0D4D4247D8949477
:1044C000B424AA64016C08CB4287D42F036D0D3548
:1044D0004287D2A2244AA2245A006E09354247627A
:1044E000D2DC026F0A3542CF92B9250B00700C4521
:1044F0003AC79064B641098B00710A453ACFA0D9FA
:1045000092216C720935424762121B01730C3542CD
:10451000CF92256A92250B00740C45424F980D519D
:10452000D81429007509354247E6495102760B3502
:104530004247664B4A491601770B35424766499414
:1045400044E902780B35424796D4C22CA905790C70
:10455000453A47E6A428A1962C007A093542C7A01F
:10456000751C047B0B5D3E9F1436A961AB007C0675
:104570004943C7037D0B5D3E871AB64A6193067EA9
:10458000091D5A4FA424520200000004FFFF00003E
:104590000001140A6464323200127A000004289682
:1045A00010080000800040001815A015C019FF0079
:1045B0001815A115C819FF001815AE19FF00000045
:1045C0001815AF19FF0000001815AE15D516801587
:1045D000A8163F15D316001540158D161415201674
:1045E0000015A115C815DA1612158116CF15D916A2
:1045F000F115DB1640152E15A415A619FF000000B5
:1046000006005250D3F075428C4000100600525004
:10461000E182887F9440001006005250BBFF3CB6F8
:10462000AC4000100D0A00000600525053B4F4A133
:0C463000E840001008005250920000000A
:10463C00004600100C4600108802001018460010AE
:10464C0094020010A0020010AC02001034460010BE
:04465C0028460010DC
:10466000F0B5C646150000B504001E000268EFF361
:10467000108172B61368002BFCD0BFF35F8F042348
:10468000E356002B2DDB2268BFF35F8F0020106004
:1046900081F31088D0221206127852B290469A42C4
:1046A00003D1002080BCB846F0BD00270BE0236892
:1046B000BFF35F8F1F6081F310882800310000F086
:1046C00033F80028EDD12268EFF3108172B6136839
:1046D000002BFCD0BFF35F8F23797F2BE7D94346B4
:1046E00002E0D0231B061B6823712368BFF35F8F92
:1046F00000221A6081F310880120D3E70268EFF3EB
:10470000108172B61368002BFCD0BFF35F8FFF23BC
:1047100003710368BFF35F8F00221A6081F3108872
:1047200040BF70477047C04601B40248844601BC90
:10473000604700BFF12600105C410010544100109A
:104740004C410010444100103C4100103441001025
:104750002C410010244100101C41001010000000EA
:104760000000000000000100000000000000000048
:104770000000020000000000000000000000030034
:1047800000000000000000000000FF00000000002A
:1047900001B5486801318E46004770460938014925
:1047A000884701BDA11F001020020020000000006A
:1047B000D8030020DC0D00200000000000000000F5
:1047C000EC0D0020000000000000000010000000C0
:1047D000503300004C3300005433000052330000CB
:1047E0004D5300004D43000053340000433400009B
:1047F0001D3A001000000000693A0010213B001033
:104800000000000000010000700200200000000015
:1048100000000000F806002060070020C807002004
:104820000000000000000000000000000000000088
:104830000000000000000000000000000000000078
:104840000000000000000000000000000000000068
:104850000000000000000000000000000000000058
:104860000000000000000000000000000000000048
:104870000000000000000000000000000000000038
:104880000000000000000000000000000000000028
:104890000000000000000000000000000000000018
:1048A0000000000000000000010000000000000007
:1048B0000E33CDAB34126DE6ECDE05000B000000CC
:1048C00000000000000000000000000000000000E8
:1048D00000000000000000000000000000000000D8
:1048E00000000000000000000000000000000000C8
:1048F00000000000000000000000000000000000B8
:1049000000000000000000000000000000000000A7
:104910000000000000000000000000000000000097
:104920000000000000000000000000000000000087
:104930000000000000000000AD3700101535001029
:10494000253600101D370010013F00103103001004
:04000005100001E9FD
:00000001FF
